:020000040800F2
:10000000207A00209D0100088B2F0008CF200008D7
:10001000892F00087D0C00085537000800000000FB
:100020000000000000000000000000005531000842
:100030007F0C0008000000008D2F000875310008BB
:10004000B7010008B7010008B7010008B7010008B0
:10005000B7010008B7010008B7010008B7010008A0
:10006000B7010008B7010008B7010008B701000890
:10007000B7010008B7010008B7010008B701000880
:10008000B7010008B7010008B7010008B701000870
:10009000B7010008B7010008B7010008B701000860
:1000A000B7010008B7010008B7010008B701000850
:1000B000B7010008B7010008B7010008B701000840
:1000C000B7010008B7010008B7010008B701000830
:1000D000B7010008B7010008B7010008B701000820
:1000E000B7010008B7010008B7010008B701000810
:1000F000B7010008B7010008B7010008B701000800
:10010000B7010008B7010008B7010008B7010008EF
:10011000B7010008B7010008B7010008B7010008DF
:10012000B7010008B7010008B7010008B7010008CF
:10013000B70100080000000000000000B70100083F
:10014000B7010008B7010008B7010008B7010008AF
:10015000B7010008B7010008B7010008B70100089F
:10016000B7010008B7010008B7010008B70100088F
:10017000B7010008B70100080000000000000000FF
:10018000B7010008B7010008DFF80CD000F052FBFF
:10019000004800472D650008207A00200648804767
:1001A00006480047FEE7FEE7FEE7FEE7FEE7FEE75C
:1001B000FEE7FEE7FEE7FEE7FD31000889010008E3
:1001C0002DE9F05F0546002092469B46884606468C
:1001D000814640241BE0284641464746224600F01F
:1001E0002CFA53465A46C01A914110D3114618466C
:1001F000224600F013FA2D1A67EB01084F462246FB
:100200000120002100F00AFA17EB00094E41201EE0
:10021000A4F10104DFDC484631462A464346BDE8E6
:10022000F09FD2B201E000F8012B491EFBD27047CB
:100230000022F6E710B513460A4604461946FFF7B2
:10024000F0FF204610BD2DE9FE4F804681EA0300F5
:10025000C00F0C46009021F0004123F00045B8EBA0
:100260000200A94105D24046214690461C460B4655
:10027000024623F00040104347D0270DC7F30A0081
:10028000C3F30A510290401A019040286BDAC3F37D
:10029000130040F4801B0098924620B10023D2EB5B
:1002A000030A63EB0B0B01985946C0F1400250461C
:1002B00000F0B4F906460D4650465946019A00F042
:1002C000CCF910EB08006141002487EA115284EA5E
:1002D000E7731A4340D0009A62B3019A012A4FEAA9
:1002E000075215DC001B61EB02014FF0004202EAED
:1002F0000752CDE90042001C41F5801132462B46E1
:1003000000F003FA03B0BDE8F08F40462146F9E75C
:10031000001B61EB0201001C41F5801300185B41DA
:100320002018A2F5001747EB030140EAD570B61973
:100330006D4111E06D084FEA360645EAC0754FEA97
:100340000752001B61EB0201001C41F580114908B6
:100350004FEA30000019514132462B4603B0BDE848
:10036000F04F00F0C3B90098012240000023D0EB09
:10037000020263EBE073009821464FEAE074B8EBA9
:10038000000061EB0401E9E783F000435BE781F0E3
:10039000004158E72DE9FE4F81EA030404F00044D0
:1003A00021F0004100944FF0000B23F0004350EA8D
:1003B00001045ED052EA03045BD0C3F30A54C1F3D4
:1003C0000A552C44A4F2F3340194A0FB0254C1F367
:1003D000130141F48011C3F3130343F4801301FBB1
:1003E000024400FB034E840A970A44EA815447EA18
:1003F0008357A4FB076802958D0A05FB07854FEA22
:10040000932C04FB0C542705029D4FEA065847EA3B
:100410001637B5EB08056EEB070C870E920E47EA10
:10042000811742EA8312A7FB0201B6EB0B0164EBD2
:1004300000042B0D43EA0C335E1844EB1C50DA46E3
:100440005146E7FB0201C5F313044FEA0B3343EABD
:1004500014534FEA0432019C43EA0603A4F10C044E
:100460000294009CCDE900B400F04FF903B0BDE860
:10047000F08F00200146F9E72DE9F04D81EA0304F1
:1004800004F0004B21F0004514464FF0000A23F021
:10049000004150EA050220D054EA01021DD0C5F304
:1004A0000A570246C5F31303C1F31300C1F30A56FA
:1004B00040F4801543F48013A7EB0608101BD646C2
:1004C00008F2FD3873EB050002D308F1010801E0E2
:1004D00092185B41B8F1000F03DA00200146BDE835
:1004E000F08D00204FF48011064684460EE0171B65
:1004F00073EB050705D3121B63EB050306434CEAB8
:10050000010C49084FEA300092185B4150EA01079C
:10051000EDD152EA030012D082EA040083EA050119
:10052000084305D0101BAB4106D20122002306E090
:1005300000224FF0004302E06FF0010253101AEB6B
:1005400006004CEB085110EB0A0041EB0B01BDE833
:10055000F04D00F0CBB80EB5C10F80EAE070084452
:10056000CA07002140F233438DE80E000A460B46CD
:1005700000F0CBF803B000BD0EB540F2334102915C
:100580000021CDE900110A460B4600F0BEF803B089
:1005900000BD00F0004230F000400AD0C10D01F56E
:1005A0006071C0F3160042EA0151C20840071143CE
:1005B000704700200146704701F0004330B421F03D
:1005C000004150EA010206D00A0DA2F56072C1F3A3
:1005D0001301002A02DC30BC00207047440F44EABB
:1005E000C104C100E01830BC00EBC25000F047B8B5
:1005F00030B50B46014600202022012409E021FAF3
:1006000002F59D4205D303FA02F5491B04FA02F5EF
:100610002844151EA2F10102F1DC30BD202A04DBC2
:10062000203A00FA02F1002070479140C2F1200305
:1006300020FA03F3194390407047202A04DB203A44
:1006400021FA02F00021704721FA02F3D040C2F1F2
:1006500020029140084319467047202A06DBCB1739
:10066000203A41FA02F043EAE07306E041FA02F36D
:10067000D040C2F12002914008431946704700293A
:10068000A8BF7047401C490008BF20F00100704718
:1006900010B4B0FA80FC00FA0CF050EA010404BF78
:1006A00010BC704749B1CCF1200421FA04F411FACE
:1006B0000CF118BF012121430843A3EB0C01CB1D12
:1006C0004FEA00614FEA102042BF002010BC704783
:1006D00000EBC35010440029A4BF10BC7047401C5D
:1006E000490008BF20F0010010BC704710B5141E6F
:1006F00073F1000408DA401C41F1000192185B41DB
:100700001A4301D120F0010010BD2DE9F04D9246B1
:100710009B4611B1B1FA81F202E0B0FA80F22032C8
:100720009046FFF77BFF04460F4640EA0A0041EA85
:100730000B0153465A46084313D0114653EA0100B1
:1007400019D0C8F140025046FFF777FF05460E4624
:10075000504659464246FFF761FF084305D0012045
:1007600004E020463946BDE8F08D0020054346EA06
:10077000E0762C4337430A986305E40AA0EB0800AF
:100780000022FD0A44EA47540A3002D500200146FF
:10079000E9E7010510196941DDE9084500196941DA
:1007A000BDE8F04DA2E770B521F0004303430CD043
:1007B000C1F30A550024D5EB040564EB0403D617F6
:1007C000AD1AB34102DB0020014670BD201841EB99
:1007D000025170BDC1F30A52C1F3130140F2FF335D
:1007E00041F480119A4202DA00200146704740F23B
:1007F00033439A42A2F2334202DC5242FFF71DBF5A
:10080000FFF70CBF30B5041E71F1000404DB4FF09C
:100810000044404264EB0101141E73F1000405DB47
:100820001C464FF00043524263EB0403994208BF59
:10083000904230BD064C074D06E0E06840F00103F1
:1008400094E8070098471034AC42F6D3FFF7A0FCB9
:10085000289E0008489E00082DE9F04D00231A4606
:100860001B1A8A4103DB00200146BDE8F08DC1F36D
:100870000A52C1F3130141F480154FF0000BD10768
:1008800002D100186D41521E0027044640F2FF11AC
:10089000384601EB620A3E468046024600204FF48D
:1008A0008011FFF7CAFEC2197141BB1846EB010067
:1008B000B4EB030C75EB000C04D3E41A65EB0005F4
:1008C00017460E46241908F101006D418046342870
:1008D000E3DDF91946EB0600091BA84103D24FF0EE
:1008E000FF32134601E0002213461BEB070046EBE4
:1008F0000A51BDE8F04DFFF7F9BE000070B505469E
:1009000011480024007860B102280AD017E000BF27
:1009100000F072F982B2A1B22B46002000F024F957
:10092000641C00F06FF9A042F2D870BD00F064F9C9
:1009300082B2A1B22B46002000F016F9641C00F030
:1009400061F9A042F2D870BD48000020F0B4074C15
:10095000A468E6882568A488E41DE408203A14FB0E
:1009600002F206FB0252F0BC00F08AB92C0400200F
:100970000148806880680047480000202DE9F05F4A
:1009800005460027994614468A46B8461046DDF8C3
:1009900028B001E008F1010810F8011B0029F9D185
:1009A00000F02AF91E4E4A46B9F1010FB168898854
:1009B000B0FBF1F002D0022A1DD105E0A0EB080047
:1009C000484305EB500003E0A0EB08004843401B00
:1009D00085B210E000F016F9A0EB0A0081B222788F
:1009E0005B462846FFF7B2FFB0687F1CBFB2808825
:1009F000641C284485B200F0FFF80146B068808886
:100A000007FB101189B2814201D3012000E00020D0
:100A1000217801B101210842DCD1BDE8F09F00003E
:100A20002C04002070B50D460646907CD17C1446FF
:100A300000EB0120117D527D090401EB02610844A5
:100A4000A17DE27D637E01EB0221227E120402EB96
:100A5000036211448BB282B22946304602F07CFB1D
:100A60000A488068836B1BB1224629463046984766
:100A700000F0C2F884B200F0C5F82346BDE870402B
:100A800082B20021084602F067BB00004800002047
:100A90002DE9FF4F8046032083B00F46A0EB4206AE
:100AA0000025144657E000BFA7EB040908EB050B2F
:100AB0001FFA89F11FFA8BF0069A00F063F8A8EB91
:100AC000050001901FFA89F180B2069A00F05AF8E9
:100AD00008EB0400A7EB050900901FFA89F180B22A
:100AE000069A00F04FF8A8EB040A1FFA89F11FFAE2
:100AF0008AF0069A00F046F807EB04091FFA89F11C
:100B00001FFA8BF0069A00F03DF801981FFA89F160
:100B100080B2069A00F036F8009807EB05091FFA34
:100B200089F180B2069A00F02DF81FFA89F11FFAB8
:100B30008AF0069A00F026F80A490948002E8860D3
:100B400003DA06EB8506B61D04E0281B06EB8006DB
:100B5000641E0A366D1CA542A6D907B0BDE8F08F09
:100B6000540000202C04002030B41D46044B9B6828
:100B70009C6A13460A4601462846A44630BC604794
:100B800048000020034B9B689B69002B00D018474E
:100B9000704700004800002030B41D46044B9B689D
:100BA000DC6A13460A4601462846A44630BC604724
:100BB0004800002038B50A4C049DA468646A0CB152
:100BC0000095A04700F018F884B200F01BF801B0BF
:100BD0002346BDE8304082B20021084602F0BCBA8C
:100BE0004800002000F0F800000201F0FC0140EA9B
:100BF000C10040EAD200704701488068006B00479E
:100C00004800002001488068406B004748000020F1
:100C10002DE9F0410D4C0E4800264FF6FF75266079
:100C2000C4E901500A4F0B480C3FB86001F024FCA6
:100C3000B86800688047012000F014F82846FFF7E4
:100C40005DFE0348A0603046BDE8F0812C04002022
:100C50005400002000000020014988607047000017
:100C60002C040020044A91684969002903D000F04F
:100C7000030313700847704748000020FEE77047E1
:100C80002DE9FF5FDFF8E4E04FF0360AAEF55A7960
:100C9000DEF8080000252A468188C488C81D04FBA8
:100CA00001F30AEB4306A9F80260360CA9F80460C8
:100CB000A9F80AA0A9F81210A9F8145020F0070307
:100CC000A9F816405B1AA9F8185003F0FF084FF076
:100CD000010B40E0029BC60806FB05330326B6EB7A
:100CE000D00F06D11A785E78120442EA06229E7866
:100CF00032430226B6EBD00F01D11A8852BABBEBB1
:100D0000D00F00D11A78002322E0661B761E06FB66
:100D100001370AEB4706CF1A07EB080CACF1010CC0
:100D20000BFA0CF717420BD0DDF80CC009F806C01F
:100D3000DDF80CC04E444FEA1C2C86F801C006E0DA
:100D4000BEF8047009F806704E443F0A77705B1CC9
:100D50008B42DAD36D1CA542BCD3DDE9001004B090
:100D6000034ABDE8F05FFFF75DBE00002C040020E1
:100D7000C40000207047000070B5044600F092F9EE
:100D80000546601C02D004480078044400F08AF94B
:100D9000401BA042FAD370BDAC0000202DE9F04FFB
:100DA0000022DFF81CB101264FF00F0906FA02F409
:100DB00001EA0403A3427CD122F003075F44D7F881
:100DC000088895074FEA157C09FA0CFA0AEA080523
:100DD000DFF8F080404502D14FF0000832E0DFF844
:100DE000E880404502D14FF001082BE0DFF8DC80BD
:100DF000404502D14FF0020824E0DFF8D48040459E
:100E000002D14FF003081DE0DFF8C880404502D151
:100E10004FF0040816E0DFF8C080404502D14FF0E3
:100E200005080FE0DFF8B480404502D14FF0060816
:100E300008E0DFF8AC80404502D14FF0070801E040
:100E40004FF0080808FA0CF8A84515D1D7F808C8DB
:100E50002CEA0A0CC7F808C8224D2F689F432F6060
:100E60002D1D2F689F432F602D1D2F689F432F60DE
:100E70002D1D2F689F432F60056857000323BB403B
:100E80009D430560D50800EB8505D5F820C05707C0
:100E90004FEAD76809FA08F72CEA070CC5F820C012
:100EA00085689D4385604568A5434560C4689C434B
:100EB000C460521C102AFFF479AFBDE8F08F000027
:100EC00000300140000002400004024000080240DF
:100ED000000C0240001002400014024000180240C2
:100EE000001C0240003C01402DE9F84FDFF87CB1C6
:100EF00000224FF001084FF0030A4FF00F090BF1E9
:100F0000040E00BF0B6808FA02F42340A3426ED11E
:100F10004D68022D01D0122D0ED1D50800EB850CA5
:100F2000DCF820505607F70E09FA07F6B5430E69AC
:100F3000BE402E43CCF82060066855000F790AFAAF
:100F400005FC07F0030726EA0C06AF4037430760AD
:100F50004E68012E05D0022E03D0112E01D0122E84
:100F60000ED18668CF6826EA0C06AF40374387600B
:100F70004668A6430C79C4F300149440344344609B
:100F8000C6688C6826EA0C06AC403443C4604C68E2
:100F9000E40065D5364C256845F480452560246815
:100FA00022F0030504F480440094324C2E19D6F844
:100FB000084895072F0F09FA07F5AC432E4DA842B4
:100FC00001D1002524E02D4DA84201D101251FE0CB
:100FD0002B4DA84201D102251AE02A4DA84201D189
:100FE000032515E0284DA84202D1042510E037E082
:100FF000264DA84201D105250AE0254DA84201D180
:10100000062505E0234DA84201D1072500E008256B
:10101000BD402543C6F80858DBF800405D464E68E1
:101020009C43F60300D51C432C60DEF80040754657
:101030004E689C43B60300D51C432C600B4D08350D
:101040002C684E689C43F60200D51C432C60074D6B
:101050000C352C684E689C43B60200D51C432C60AE
:10106000521C102AFFF44EAFBDE8F88F003C01403F
:1010700044380240003001400000024000040240B9
:1010800000080240000C0240001002400014024020
:1010900000180240001C02400AB181617047090437
:1010A000FBE700000148806870470000AC000020AA
:1010B00070B504001BD094F83D00002520B984F8D9
:1010C0003C50204600F042FA242084F83D0020687D
:1010D000016821F00101016000F092FB4D4A616856
:1010E000914201D84C4900E04C49884201D201208C
:1010F00070BD4B492368B0FBF1F15E6826F03F06F6
:101100000E435E606368934206D94FF49673594369
:101110004FF47A73B1FBF3F12368491C1E6A26F081
:101120003F06314319626168914210D84900401E60
:10113000B0FBF1F2521CC2F30B02042A01D20420CC
:1011400022E0B0FBF1F0401CC0F30B001CE0A368F0
:10115000F3B301EBC10202EB0116421EB2FBF6F241
:10116000521C42F48042120549D093B301EBC102F4
:1011700002EB0111401EB0FBF1F0401CC0F30B006C
:1011800040F4804040F400402168CA694CF6FF7387
:101190009A431043C861D4E90701084321680A68EB
:1011A00022F0C00210430860D4E903010143206823
:1011B000826848F2FF339A4311438160D4E9050104
:1011C00008432168CA6822F0FF021043C86001E0AA
:1011D0000EE016E02068016841F00101016025641D
:1011E000202084F83D00256384F83E50002070BD27
:1011F00001EB4106421EB2FBF6F2521CB3E701209E
:10120000C2E701EB4101401EB0FBF1F0401CC0F30E
:101210000B00B7E7A086010080841E0000093D0096
:1012200040420F002DE9FF4F83B09A46DDE9119748
:1012300093460446DDF84080FFF734FF054694F8F6
:101240003D00202870D119230122714920460095C4
:1012500001F038F80028F5D194F83C00012863D05B
:10126000012084F83C0020680168C90703D10168A7
:1012700041F0010101602068016821F40061016012
:10128000222084F83D00402084F83E000026266499
:10129000C4F82480A4F82A90608D20855D48E0621F
:1012A000CDE9007553465A462046049900F027FFC1
:1012B00000287CD1208DD0B1012821D002282068BF
:1012C00024D0416980690090208D032869D80128C5
:1012D0002BD0514902283B464FF00002009559D0CF
:1012E0008846204600F0EEFF002860D13CE02068F0
:1012F000416981690091016841F40071016077E002
:101300002068016821F480610160F0E7016821F440
:10131000806101602068016841F40061016020681B
:1013200041698069009063E06FE02A4639462046B3
:1013300001F047F898BB20680069616A08704EE0C8
:101340002068016841F40071016020680069616AE9
:101350000870606A401C6062218D491E2185618D84
:10136000491E6185216838E02068016821F48061A8
:10137000016020680069616A0870606A401C6062F0
:10138000208D401E2085608D401E60853B460022DA
:1013900041460095204600F095FF00B9D0E706E0F1
:1013A000FFE72A463946204601F00BF818B1012024
:1013B00007B0BDE8F08F20680069616A0870606A54
:1013C000401C6062218D491E2185618D491E618509
:1013D00021684A69D24352070AD409690170606AD8
:1013E000401C6062208D401E2085608D401E6085FF
:1013F000208D00287FF468AF202084F83D0084F819
:101400003E6084F83C600020D2E70220D0E7000074
:10141000020010000000FFFF040001002DE9FF4F53
:1014200083B09A46DDE9119793460446DDF8408083
:10143000FFF738FE054694F83D0020287FD1192398
:10144000012240492046009500F03CFF002876D15B
:1014500094F83C00012872D0012084F83C002068F8
:101460000168C90703D1016841F0010101602068EA
:10147000016821F400610160212084F83D004020D2
:1014800084F83E0000262664C4F82480A4F82A903C
:10149000608D20852C48E062CDE9007553465A46A0
:1014A0002046049900F09EFE70B930E02A46394685
:1014B000204600F0B9FF58B1206C042804D1206800
:1014C000016841F400710160012007B0BDE8F08FB0
:1014D000606A216800780861606A401C6062218D42
:1014E000491E89B22185628D521E62852268536928
:1014F000DB435B070BD469B100781061606A401C64
:101500006062208D401E2085608D401E6085208D8C
:101510000028CBD12A463946204600F0ADFE0028EF
:10152000CAD154F83D0B016841F4007101602020DC
:1015300004F81E09E67766770020C6E7FFE7022079
:10154000C3E70000020010000000FFFF10B586B0E6
:10155000044614216846FEF76BFE14492068884251
:1015600021D11348016841F0020101600068694619
:1015700000F0020005904FF44060009012200190AE
:101580000120029003200390042004900948FFF7F3
:10159000ABFC07481030016841F48001016000682D
:1015A00000F48000059006B010BD00000058004017
:1015B0003038024000040240024881680278114439
:1015C00081607047AC0000200B4810B5016841F401
:1015D00000710160016841F480610160016841F4BB
:1015E00080710160032000F061F8002000F006F82F
:1015F00000F024F8002010BD003C024070B50D4DF5
:1016000004464FF47A712878B1FBF0F00A49096872
:10161000B1FBF0F000F083FC48B9102C07D2002297
:101620002146501E00F022F800206C6070BD0120A1
:1016300070BD0000AC000020B80000200A4808B5CA
:10164000016841F480410160006800F4804000902E
:101650000548001F016841F080510160006800F0FA
:101660008050009008BD000044380240F0B40E4B9A
:101670001B680C46C3F30223C3F10705042D00D9F0
:101680000425191D072901D2002300E0DB1E0126D5
:1016900006FA05F1491E214099409E40761E1640EB
:1016A0003143F0BC02F06ABF0CED00E0064900F0E7
:1016B000070208684FF6FF03184040EA0220034A79
:1016C00010430860704700000CED00E00000FA05D0
:1016D0002DE9F0470E46050065D0DFF81481D8F8F3
:1016E0000000F7B200F00F00B04207D288F8007097
:1016F000D8F8000000F00F00B04254D128683D4CEB
:10170000810712D5400703D5206840F4E0502060DF
:101710002878000703D5206840F4604020602068E6
:10172000A96820F0F000084320602878C0072DD079
:10173000304968680839012812D0022813D00328DC
:1017400011D00968890700292DDA216821F00301E9
:1017500001432160FFF7A6FC814641F2883A0EE082
:1017600009688903EFE709688901ECE7FFF79AFC4C
:10177000A0EB0901514502D90320BDE8F08720689C
:10178000696800F00C00B0EB810FEFD1D8F80010C1
:10179000404601F00F01B14207D90770006800F020
:1017A0000F00B04201D00120E7E72878400705D5B7
:1017B0002068E96820F4E05008432060287800079A
:1017C00006D52068296920F4604040EAC100206005
:1017D00000F036F82168084AC1F30311515CC84093
:1017E000064908600020FFF709FF0020C5E7000058
:1017F000003C0240083802407A9D0008B8000020F2
:101800000448054900680968044AC1F38221515C13
:10181000C8407047B8000020083802408A9D000880
:101820000448054900680968044AC1F34231515C23
:10183000C8407047B8000020083802408A9D000860
:10184000154810B5006810F00C02144813D0411070
:10185000042A0FD0082A0ED10F4C241F22682368B7
:1018600002F03F025B0207D52068C0F38810A0FB9E
:10187000010106E0084610BD2168C1F38811A1FBF3
:1018800000010023FEF79CFC2168C1F30141491CC3
:101890004900B0FBF1F010BD083802400024F4000C
:1018A0002DE9F84F050076D02878DFF8F8B2BE4C65
:1018B000C00749D0DBF800105846C1F38101012967
:1018C00008D00068C0F3810002280AD1201D0068FA
:1018D000400206D52068800336D568680028E2D02B
:1018E00032E06868B0F5803F10D0B0F5A02F2068D6
:1018F00010D020F480302060206820F48020206008
:101900006868A0B1FFF7CEFB06460CE0206840F403
:101910008030F4E740F480202060F7E7FFF7C2FB57
:10192000801B642873D820688003F7D50CE0FFF78C
:10193000B9FB064605E000BFFFF7B4FB801B642837
:10194000F0D820688003F7D42878DFF86082800719
:101950004FF000093ED5DBF80010584611F00C0F8F
:1019600009D00068C0F3810002280BD18D48001F08
:101970000068400206D42068800715D5E868012871
:1019800009D111E0E868B8B10120C8F80000FFF7FC
:1019900089FB064605E002E1FFF784FB801B022875
:1019A000C0D820688007F7D52068296920F0F800A2
:1019B00040EAC10020600DE0C8F80090FFF772FB1C
:1019C000064604E0FFF76EFB801B02281FD8206844
:1019D0008007F7D42878000722D5724E74486969C9
:1019E0006C3671B101210160FFF75CFB074604E032
:1019F000FFF758FBC01B022809D830688007F7D5CD
:101A00000EE0C0F80090FFF74DFB074605E083E0CD
:101A1000FFF748FBC01B02287ED830688007F7D448
:101A20002878400768D5DFF87CA100270AF1380A3A
:101A3000DAF80000C0000BD4DAF8001041F0805151
:101A4000CAF80010DAF80000012700F0805000907A
:101A5000584E3068C00510D4306840F48070306053
:101A6000FFF720FB009005E0FFF71CFB0099401AF0
:101A7000022851D83068C005F6D54A4EA8686836A5
:101A800001280FD00528306810D020F00100306008
:101A9000306820F004003060A868B8B1FFF702FB9E
:101AA00000900FE0306840F00100F4E740F00400DF
:101AB0003060F7E7FFF7F6FA0099411A41F28830F3
:101AC000814264D830688007F4D50EE0FFF7EAFA67
:101AD000009007E0FFF7E6FA0099411A41F28830DA
:101AE000814254D830688007F4D42FB1DAF800105E
:101AF00021F08051CAF80010A869C0B3DBF80010CB
:101B0000C1F3810102294AD00228484607D0C8F80B
:101B10006000FFF7C7FA00E039E005463AE04746C3
:101B2000C8F86000FFF7BEFA064604E0FFF7BAFA0D
:101B3000801B02282BD820688001F7D4D5E9070143
:101B40000843A96A1C4A490802EB01416A6A41EA52
:101B50008211084395F82C1040EA01611148001FDA
:101B6000016001203866FFF79DFA054605E014E0A4
:101B7000FFF798FA401B022809D820688001F7D5A2
:101B80000BE000BFFFF78EFA401B022802D90320AA
:101B9000BDE8F88F20688001F4D40020F8E7012028
:101BA000F6E70000083802400038024000004742D3
:101BB000800E4742007000400000FFFF10B5040097
:101BC00011D0022084F851002068016821F0400102
:101BD0000160204600F04CF80020606584F8510058
:101BE00084F8500010BD012010BD90F851007047DE
:101BF00070B5040005D00025A56294F8510010B11D
:101C000006E0012070BD84F85050204600F04EF8E8
:101C1000022084F851002068016821F04001016031
:101C2000D4E901010843D4E903121143084361696F
:101C30000843218B01F400710843E1690843216ADC
:101C40000843A16A084321680860A069042101EAE9
:101C50001040616A0843216848602068C16921F426
:101C60000061C1616565012084F85100002070BDEC
:101C700010B50068094988420ED10948016821F46D
:101C800080510160C0210748FFF788F8BDE8104087
:101C900008210548FFF782B810BD00000030014060
:101CA000443802400000024000040240F0B587B012
:101CB000044614216846FEF7BBFA1C492068884296
:101CC00032D11B480024016841F480510160006852
:101CD00000F48050059016481438016841F0010165
:101CE0000160016801F001010591016841F0020104
:101CF00001600068022500F002000590C020CDE9D7
:101D0000000502AA0326052782E8D0006946094893
:101D1000FFF7EAF80820CDE9000502AA694682E843
:101D2000D0000548FFF7E0F807B0F0BD00300140F3
:101D30004438024000000240000402402DE9F84F00
:101D4000044690F8500000270A9E1D4692468B4696
:101D50004FF0010901280ED0012084F85000FFF750
:101D6000A1F9804694F85100616801280CD0B1F5C2
:101D7000827F07D102E00220BDE8F88FA16809B98F
:101D8000042801D00227C2E0BBF1000F27D0BAF12E
:101D9000000F24D01DB394F85100042802D0052070
:101DA00084F8510000206065C4F838A0E587A58755
:101DB000C4F830B0E586A5862064606420680168B8
:101DC000490603D4016841F040010160E068B0F5C4
:101DD000006F606805D0E8B3012D46D07FE0012791
:101DE00095E008B1012D39D1206B21680088C860C9
:101DF000206B801C2063E08E401EE0862EE0206871
:101E0000816889070FD5E18E69B1B9F1010F0AD157
:101E1000216B0988C160206B801C2063E08E401E0E
:101E2000E0864FF0000920688168C9070CD0E18F77
:101E300051B1C068A16B0880A06B801CA063E08FCB
:101E4000401EE0874FF00109FFF72CF9A0EB0800D6
:101E5000B04200E009E001D3701C50D1E08E0028B0
:101E6000CDD1E08F0028CAD13FE0206B21680078F7
:101E70000873206B401C2063E08E401EE0862EE03D
:101E80002068816889070FD5E18E69B1B9F1010F2A
:101E90000AD1216B09780173206B401C2063E08E0E
:101EA000401EE0864FF0000920688168C9070CD009
:101EB000E18F51B1C068A16B0870A06B401CA0639A
:101EC000E08F401EE0874FF00109FFF7EBF8A0EB31
:101ED0000800B04202D3701C01D010E07EB1E08E49
:101EE0000028CDD1E08F0028CAD142463146204695
:101EF00001F04DF828B101272020606507E0032795
:101F000005E0A06818B92068C168806800900120C9
:101F100084F85100002084F8500038462CE710B5B2
:101F2000401EB0F1807F01D3012010BD4FF0E024AE
:101F300060610F21601702F021FB0020A0610720E3
:101F40002061002010BD70B5040004D094F8390061
:101F5000002510B106E0012070BD84F838502046FD
:101F600000F022F8242084F839002068C16821F4A8
:101F70000051C160204601F065FA2068016921F432
:101F8000904101612068416921F02A014161206886
:101F9000C16841F40051C160E563202084F8390034
:101FA00084F83A00002070BD10B586B004461421B4
:101FB0006846FEF73DF914492068884221D113484C
:101FC000016841F010010160006800F01000059008
:101FD0000E481438016841F001010160006869464B
:101FE00000F0010005904FF4C060009002200190C5
:101FF0000120029003200390072004900448FEF77C
:1020000073FF06B010BD00000010014044380240CC
:10201000000002402DE9F843044690F839001F46BD
:1020200016460D46202850D1A5B19EB194F838002F
:1020300001284AD0012084F838004FF00008C4F885
:102040003C80212084F83900FFF72CF8A6848146D3
:10205000E68426E00120BDE8F883E08C401EE084A1
:10206000A0684B46B0F5805F4FF000024FF0800152
:102070002046009703D001F03BFBE8B90DE001F0EA
:1020800037FBC8B928882168C0F308004860206978
:1020900008B16D1C05E0AD1C03E0216815F8010BCB
:1020A0004860E08C0028D8D14B46002240212046D1
:1020B000009701F01DFB08B10320CCE7202084F835
:1020C000390084F838800020C5E70220C3E7FEE726
:1020D00001684A69D24352050FD46FF480624A61A5
:1020E000002140F8301F202242738173026942F0C0
:1020F00004020261017301207047002070472DE93E
:10210000F84F0446006889460B9D016898461746BB
:1021100041F4806101602068016841F480710160D0
:1021200000954FF0011A0022514620460A9B00F00C
:10213000C9F8002853D1216809F0FE0008610AF1AE
:10214000010B2B46594620460A9A00F0EFF8F0BBE7
:1021500020684169806900902A4620460A9900F06B
:1021600063F940B1206C042839D12068016841F43A
:102170000071016033E0FEB2B8F1010F09D02168AF
:10218000380A08612A4620460A9900F04DF90028CD
:10219000E8D1206806612A4620460A9900F044F9F1
:1021A0000028DFD12068016841F48071016000954A
:1021B0000022514620460A9B00F084F838B9216875
:1021C00009F0FF0040F0010008612B4600E006E046
:1021D000594620460A9A00F0A9F8002800D00120AC
:1021E000BDE8F88F2DE9F843044600680D46DDE9A7
:1021F000089701689846164641F4807101604B4685
:1022000000224FF001112046009700F05BF8E0B982
:10221000216805F0FE0008613B464A461549204604
:1022200000F084F888B920684169806900903A46D6
:102230004946204600F0F8F850B1206C042804D13B
:102240002068016841F4007101600120BDE8F88355
:10225000F5B2B8F1010F09D02168300A08613A4699
:102260004946204600F0E0F80028E6D120680561E4
:102270000020EBE70200010070B516460D4604464B
:102280000DE02046FFF724FF08B1012070BD681C57
:1022900005D0FEF707FF801BA84207D835B120689C
:1022A0004069C0434007ECD4002070BD002044F8D2
:1022B000300F20216173A073216941F02001216159
:1022C0002073E2E72DE9F0471E4690460D4604468E
:1022D000C1F30747DDF8209008E0701C06D0FEF738
:1022E000E1FEA0EB0900B0420FD876B12068012FC3
:1022F00018D0806925EA00000004000C14D00021E9
:102300004145EAD00020BDE8F087002044F8300FB6
:1023100020216173A073216941F0200121612073A4
:102320000120F0E74069E5E70121E9E72DE9F04701
:102330009A4691460E46044600254FF02008C1F308
:10234000074725E020684069C043400514D4206851
:10235000016841F40071016021686FF48060486198
:10236000256384F83D8084F83E50206C40F00400E2
:10237000206484F83C501FE0B9F1FF3F08D0FEF71D
:1023800091FEA0EB0A0149450CD8B9F1000F09D024
:102390002068012F13D0806926EA00000004000C99
:1023A0000BD0CFE744F8305F84F80D80A573206927
:1023B00040F02000206125730120BDE8F0874069CE
:1023C000EAE72DE9F041002590460E460446202715
:1023D00017E04069C043C0060CD454F8301B6FF0BE
:1023E0001000486144F810596777A577206A206289
:1023F000257717E0FEF756FEA0EB0800B04208D89C
:102400003EB120684169C9434906E2D40020BDE8D5
:10241000F08144F8305F6773A573206940F02000B5
:10242000206125730120F2E770B516460D4604467B
:102430000DE02046FFF74CFE08B1012070BD681C7E
:1024400005D0FEF72FFE801BA84207D835B12068C3
:102450004069C0430006ECD4002070BD002044F861
:10246000300F20216173A073216941F020012161A7
:102470002073E2E7FEF780BC154810B5016886B00E
:1024800041F002010160016801F00201059101685B
:1024900041F00201016000680E4C00F0020005905E
:1024A0008020009001200190022003906946204680
:1024B000FEF71AFDA015009069462046FEF714FDB0
:1024C000012280212046FEF7E7FD06B010BD000086
:1024D00030380240000402403EB5124D044600224E
:1024E00080212846FEF7D8FD0022A9152846FEF7D0
:1024F000D3FD0D488DF8044001234068009002AAE6
:1025000001A90A48FFF71AFC18B100F09BFD01244D
:1025100001E09DF80840012280212846FEF7BCFD1D
:1025200020463EBD000402404800002088290020CB
:1025300070B5174E0C460546002280213046FEF746
:10254000ABFD012211023046FEF7A6FD012C1BD087
:10255000104A74B1106881688907FBD569780173E6
:10256000106881688907FCD515F8021B0173A41E49
:10257000F0D1106881680906FCD43046BDE870408F
:1025800001228021FEF788BD287800F0CFFDF4E716
:10259000000402408829002070B50B4C054600223B
:1025A00080212046FEF778FD0022A1152046FEF787
:1025B00073FD284600F0BAFD2046BDE870400122B8
:1025C0008021FEF769BD0000000402402DE9F74FAD
:1025D00007462DED020B0D462DED0E8B88B0B0EEAB
:1025E000608AF0EE40CAB0F882060290384600F0E9
:1025F00043FBF0EE408A2946384600F0D1FAF0EE6F
:10260000409A9FEDF99A95F84C0F39EE890A20EE21
:10261000000A20EE001A38EE090A20EE000A20EE29
:10262000000A30EE411AC1EE2C0A30EE60AAFDF726
:10263000A3FF41EC110B9FEDEDDBB0EE4D0AF0EE88
:102640006D0A01F0ADFF51EC100BFDF7B5FF05F57C
:1026500080560CEE100A96F84D02FDF78DFF41EC06
:10266000110BB0EE4D0AF0EE6D0A01F099FF51EC3E
:10267000100BFDF7A1FF0BEE900A95F84A06FDF747
:102680007BFF41EC110BB0EE4D0AF0EE6D0A01F04C
:1026900087FF51EC100BFDF78FFFB7EE008AD5EDE9
:1026A0000B0A9FEDD41AB0EE480A0BEE100A00EEAA
:1026B000810AD14BC8EE000ACDED030A8DED048AE4
:1026C000B5F94400D5ED0C0A00EE100AB8EEC01AB8
:1026D000B0EE480A00EE810A8DED050AB5F9461004
:1026E000D5ED0D1A081A00EE900AB8EEE01AF0EED9
:1026F000480A41EE810A20EE800A8DED060AB7F8FD
:10270000140600EE100AF8EE400A10EE900ADFED13
:10271000BBAA984201DD70EEEA0AB5F914008021E7
:1027200000EE100AB7F880066A46B8EEC00A01EA61
:102730005019B7F8100680EE20DA00EE100AB8EE55
:10274000400A8DED000AB7F8500600EE100A00208E
:10275000B8EE400A8DED010A02EB80019A4691ED38
:10276000000A10EE104A9C4203DD30EE6A0A81ED49
:10277000000A20EE0D0A401C022881ED000AEBDB66
:10278000B3EE090AD5ED080A79EEC0DAB0EE480AD0
:10279000B6F9580295ED071A00EEAD0A00EE900A60
:1027A000F8EEE00A60EE201ADFED950A38EEE0EA76
:1027B000F0EE480A41EE0E0A9DED001A01EEE01A15
:1027C0008DED001AB6F95A0295F8251001EE100A9F
:1027D0004945B8EEC11A02D120EE011A05E0D6ED46
:1027E000971A31EE211A21EE001A9DED010A0024FC
:1027F00001EE600A8DED010AE31704EB936104EB2F
:10280000D36089114011494200EB410042B204EB10
:10281000D4704010404204EB400004F1020C5040E0
:102820004FEAEC784FFA80FB0CEB987CE01C4FEA07
:10283000E0784FEAAC0C00EB9870611CACEBA000A8
:102840004FEAE17C01EB9C7100EBA10004EB93717A
:10285000A0EBA1005342012101EB4301484341B2E7
:10286000B9F1000F7ED05846B7F8823683427AD14C
:1028700037F8140000EE100AF8EE400A10EE900A45
:10288000504501DD70EEEA0A281995F825C090F947
:102890004C3C90F94D0F00EE103A60EE8D0ACC459D
:1028A000B8EEC01A81EE0C0A01EE100A05EB4400E6
:1028B000F8EEC11AB0F94C3681EEAB1A01EE903A3F
:1028C000B8EEE12AF0EE481A40EE2D1AB0EE480AB2
:1028D00062EE211A01EE0E0A41EEC00A13D04FF04B
:1028E000FF3303EB420200EE102A96ED991AB8EE80
:1028F000C00A41EE000A00EE101A96ED981AB8EEE2
:10290000C00A41EE400A029A694601EB820195ED48
:10291000060A91ED001AB0F84A00F0EE488A40EE3F
:10292000410A9FED380AC0EEAC9A6BEE000A00EE49
:10293000100AB8EE401A80EE810A95ED0A1AF0EE00
:10294000680A41EE2D0A60EE80EA2EEEAE0A60EED5
:102950002E0AB0EE690A0EEE8A0A20EE800A01F015
:10296000CEFD01E023E078E001F0C9FDD5ED0C0AD1
:10297000B0EE681A00EEC91A20EE200A0EEE810AA7
:10298000C9EE800A30EE8A0A01F0B9FD01F0B7FD08
:10299000B5F9420030EE490A00EE900AF8EEE00A7E
:1029A000F4EEC00AF1EE10FA03DD00202DE010462F
:1029B0005AE7B5F9440000EE900AF8EEE00AF4EEAA
:1029C000C00AF1EE10FA01DD01201EE0B5F9460063
:1029D00000EE900AF8EEE00AF4EEC00AF1EE10FA0A
:1029E00012DD022011E00000339388430000000054
:1029F000000000400000204200FEFF46000080472B
:102A000033335340BD378635032005EB800191ED0C
:102A10000B1A05EB4001B1F9401000EE901A03A922
:102A200001EB8000F8EEE00A30EE600A41EE008A29
:102A300090ED000A20EE2E0A28EE800AC9EE800AE8
:102A400030EE8A0A01F05BFD01F059FD1A9830EE74
:102A5000490A00EB840080ED000A641CB4F5407F55
:102A6000FFF6CAAE08B0BDEC0E8B05B0BDE8F08F26
:102A70000B464FF450724FF4105100F061B970B52D
:102A80000C46054600F07AFF2146284601F070F812
:102A90002146284600F0D6FF2146284600F052FF86
:102AA000B5F870002146C0F3013084F824002846B0
:102AB00000F0D0FF2146284600F0EAFF21462846D4
:102AC00000F058FE2146284601F0BAF82146284673
:102AD00001F0A8FA2146284601F002FC21462846CA
:102AE00001F024FB2146284600F058FF21462846E5
:102AF000BDE8704001F0F6B92DE9FC470D4681466E
:102B000000244FF400466B4601223146484600F04F
:102B100017F900282DD1BDF8000010F0080FF2D0F1
:102B20004FF450774FF48068052C1ED23022314686
:102B3000484600F029F9411C1BD02B463A46414635
:102B4000484600F0FDF8002813D16B4601223146BB
:102B5000484600F0F5F800280BD1BDF8000004F15C
:102B6000010410F0080FE4B2DED1042C03D96FF099
:102B70000700BDE8FC8701AB012248F20D01484681
:102B800000F0DEF80100BDF80400A5F88006BDF8ED
:102B9000000000F00100A5F88206EAD00846E8E748
:102BA00070B50C462DED068B054600F065F8B5F8BE
:102BB0004006B0EE409A00EE100A2849B8EE408A6E
:102BC0009FED270A18EE100A884201DD38EE408A90
:102BD000B5F8000600EE900AF8EE608A18EE900A4A
:102BE000884201DD78EEC08A9FED1E1B9FED1F0B12
:102BF00001F0D6FCB0EE40AA94ED040AF0EE60AA13
:102C000048EE008A88EE280A10EE100AFDF7C1FC93
:102C100053EC1A2BFDF7BEFBFDF7CEFCDFED150ADA
:102C200094ED011A00EE100A79EE601AF7EE000A30
:102C3000A08941EE210A80EE201A00EE100AD4EDA0
:102C4000020AB8EE400ABDEC068B31EE400A80EE77
:102C5000201AB3EE090A31EE000A70BD00FEFF46ED
:102C6000000080470000000000003240000000002B
:102C7000000000403333534010B50C462DED068B59
:102C8000B0F85416284A00EE101AB8EE408A18EE32
:102C9000101A914203DD9FED250A38EE408AB0F804
:102CA0008006C0F38120FDF756FC9FED21AB41EC7F
:102CB000110BB0EE4A0AF0EE6A0A01F071FCB0EEB8
:102CC000409AF0EE609A94F82400FDF755FC41EC30
:102CD000110BB0EE4A0AF0EE6A0A01F061FCB0EEA8
:102CE000401AF0EE601A53EC192B51EC110BFDF762
:102CF000C3FBFDF761FC00EE100AB4F9020000EE20
:102D0000900AB4F90000F8EEE00A50EE080A00EE6E
:102D1000100ABDEC068BB8EEC01A80EE810ADFED1A
:102D2000060A30EE200A10BD00FEFF460000804774
:102D300000000000000000403333534000F0C4B8EE
:102D4000FEB516461D464FF6FF724FF4FA7302EABF
:102D500046020095CDE9012340000A4601460024C1
:102D600010230848FEF75EFA38B1601EFEBD281930
:102D70002A5D417842702955A41CB4EB460FF6DB5E
:102D80000020FEBD342900207FB505460E464006D2
:102D9000010E100A8DF80C0014468DF80D204FF42A
:102DA000FA73022203A88DE80D00102332460B4867
:102DB000FEF734FB18B14FF0FF3004B070BD084B84
:102DC000012231462846FFF7BBFF05480088A04294
:102DD00002D06FF00100F0E70020EEE73429002078
:102DE0004600002038B548F20D0405466B46012226
:102DF0002146FFF7A5FF002807D1BDF800002146B6
:102E000040F480522846FFF7BFFF38BDF8B50546AD
:102E10004807860D48F20D046B46012221462846DC
:102E2000FFF78EFF002808D1BDF80000214620F4EE
:102E3000607232432846FFF7A7FFF8BDF0B587B0B0
:102E400014216846FDF7F4F91D480024016841F09B
:102E500080010160016801F080010591016841F085
:102E600001010160016801F001010591016841F073
:102E7000020101600068134F00F00200059001227A
:102E800004213846FEF708F94FF4E0760022314677
:102E90003846FEF701F901250420CDE90005CDE90A
:102EA000025469463846FEF71FF80096CDE90154F2
:102EB000694638460394FEF717F807B0F0BD0000E6
:102EC00030380240000402400D4810B50B49016043
:102ED0000C49416000214FF480428160C0E9031237
:102EE00041618161C1610162FEF7E2F8002803D00F
:102EF000BDE81040FDF73EBF10BD00000058004087
:102F000034290020801A0600104810B50E490160CF
:102F10004FF48271416000218160C1604FF4007202
:102F20000161C0E905121022C0E9072141628162F6
:102F30000A21C162FEF75CFE002803D0BDE8104004
:102F4000FDF718BF10BD00000030014088290020A7
:102F50000C4810B50A4901604FF4E131416000218D
:102F600081600C22C160C0E904128161C161FEF779
:102F7000EAFF002803D0BDE81040FDF7FBBE10BDFE
:102F800000100140E0290020FEE77047704738B587
:102F90000B46009204460022802100F008F8002829
:102FA00004D0606D40F020006065032038BD2DE93D
:102FB000F0411D4617460E460446DDF8188008E02D
:102FC000681C06D0FEF76EF8A0EB0800A8420BD2F2
:102FD00055B12068806836EA000030D00020B84241
:102FE000EED10020BDE8F0812068416821F0E001C9
:102FF00041606068B0F5827F0BD1A068B0F5004FEA
:1030000002D0B0F5806F04D12068016821F0400142
:103010000160A06AB0F5005F09D12068016821F461
:10302000005101602068016841F4005101600120F5
:1030300084F85100002084F850000320D2E70120DA
:10304000CDE7000010B50348FEF7B8FDBDE810401D
:1030500000F002B88829002010B51148FEF7C5FD20
:1030600000281BD10E480F49072201601021C161C1
:103070000021816041610161C0E90A12C1604FF421
:1030800000720162826141624FF48271416000F01E
:103090000BF8BDE810400248FEF7AABD10BD0000C5
:1030A000882900200030014030B587B014216846DF
:1030B000FDF7BEF81A480024016841F002010160E2
:1030C000016801F002010591016841F00101016010
:1030D0000068694600F00100059008200090022079
:1030E000019003900F48FDF7FFFE80200E4D0090E9
:1030F00069462846FDF7F8FE4020CDE90004694600
:103100002846FDF7F1FE06481430016841F480516D
:103110000160006800F48050059007B030BD0000E9
:1031200030380240000402400000024001B5074868
:1031300082B001234068009001AA02A90448FEF76A
:10314000FDFD002801D0FFF77DFF0EBD48000020E7
:10315000882900207047000030B4054CA468246A18
:10316000002C02D0A44630BC604730BC7047000041
:1031700048000020FEF720BA30B593B030216846F1
:10318000FDF756F814210CA8FDF752F81948002550
:10319000016841F080510160006800F0805011909A
:1031A0001548016841F4804101600068022400F480
:1031B0008040119001200090000401908001CDE931
:1031C000064008AA0420A82182E813000B90684654
:1031D000FEF766FB0CA90F2081E831004FF4A050E8
:1031E0000F90E002109005210CA8FEF771FA13B0C1
:1031F00030BD0000403802400070004010480168B7
:1032000041F4700101600F48016841F00101016063
:103210000C4A00210832116002680B4B1A40026010
:10322000031D0A4A1A60026822F4802202600548DF
:103230000C30016002495806803908607047000070
:1032400088ED00E000380240FFFFF6FE1030002459
:10325000764930B491ED062ADFED750AD1ED072AE3
:1032600062EE203A72EEC21A83EEA11A80EEA13A03
:1032700013EE001A9FED6F3A6F4AB5EEC01AF1EEE9
:1032800010FA02D2B0EE431A05E011EE100A904295
:1032900001DDB0EE601ABCEEC11A11EE100AC0B228
:1032A000087091ED011AB4EEC10AF1EE10FA01DDD9
:1032B000012400E00024D1ED051AB4EEE10AF1EE9C
:1032C00010FA01D2012300E000231C424FF000035A
:1032D00009D021EE204A71EEC12A24E0BCEEC11AC9
:1032E00011EE104A12E0B4EEE10AF1EE10FA01DB41
:1032F000012400E00024B4EEE20AF1EE10FA01D855
:10330000012500E000252C4202D0FF244C7032E061
:10331000B4EEE20AF1EE10FA91ED081A18DD21EE92
:10332000204A72EEC12A84EE221A80EEA24A14EEDE
:10333000001AB5EEC01AF1EE10FA02D2B0EE431A3E
:10334000CCE711EE104A9442C8DDB0EE601AC5E732
:10335000B4EEC10AF1EE10FA01DD012400E0002410
:10336000B4EEE10AF1EE10FA01D2012500E00025E9
:103370002C4300D04B70B4EEC20AF1EE10FA18D80C
:1033800071EEC21A83EEA11A80EEA12A12EE001A83
:10339000B5EEC01AF1EE10FA03D200BFF0EE430A08
:1033A0003AE011EE103A934236DC00BFF0EE410AEB
:1033B00032E0B4EEC20AF1EE10FA01DD012200E0C3
:1033C0000022D1ED080AB4EEE00AF1EE10FA01D8BD
:1033D000012400E00024224201D08B7021E0B4EEF1
:1033E000E00AF1EE10FA1CDDD1ED021A9FED131A7E
:1033F00071EEE01A20EE812AC2EE210A81EE212A26
:1034000052EE000AF5EEC00AF1EE10FAC6D310EE45
:10341000902A0B4B9A42C9DCBCEEE00A10EE102A4F
:103420008A708A78497830BCFDF7DCBB6C000020DC
:1034300000007F430000000000007F430000704355
:10344000000070432DE9F041044600680169E2681C
:1034500021F44051114301612169A068E2690843E8
:103460006169114322680843D16849F20C639943AA
:103470000143D16020684169A26921F44071114380
:103480004161E2696425B2F5004F97489749226887
:103490004FF032083FD08A4201D082427CD1FEF701
:1034A000BFF900EBC00101EB001061688900B0FBBF
:1034B000F1F6FEF7B5F900EBC00101EB0010616811
:1034C0008900B0FBF1F0B0FBF5F06FF01801484354
:1034D00006EB800108EB0110B0FBF5F000F0F00600
:1034E000FEF79EF900EBC00101EB00106168890056
:1034F000B0FBF1F0B0FBF5F006EB0016FEF790F92B
:1035000000EBC00101EB001061688900B0FBF1F72E
:10351000FEF786F9D2E08A4201D082423DD1FEF721
:103520007FF900EBC00101EB001061684900B0FBBE
:10353000F1F0B0FBF5F00601FEF772F900EBC00107
:1035400001EB001061684900B0FBF1F7FEF768F984
:1035500000EBC00101EB001061684900B0FBF1F025
:10356000B0FBF5F06FF01801484307EB800108EB62
:10357000C100B0FBF5F000F0F80006EB4006FEF7E6
:103580004FF900EBC00101EB001061684900B0FB8E
:10359000F1F7FEF745F93CE055E0FEF731F900EBB5
:1035A000C00101EB001061684900B0FBF1F0B0FB15
:1035B000F5F00601FEF724F900EBC00101EB001065
:1035C00061684900B0FBF1F7FEF71AF900EBC001A2
:1035D00001EB001061684900B0FBF1F0B0FBF5F0C1
:1035E0006FF01801484307EB800108EBC100B0FB06
:1035F000F5F000F0F80006EB4006FEF701F900EBED
:10360000C00101EB001061684900B0FBF1F7FEF763
:10361000F7F800EBC00101EB001061684900B0FB56
:10362000F1F0B0FBF5F06FF01801484307EB8001B3
:1036300008EBC100B0FBF5F000F007002168304452
:103640008860BDE8F081FEF7DBF800EBC00101EB1C
:10365000001061688900B0FBF1F6FEF7D1F800EBCD
:10366000C00101EB001061688900B0FBF1F0B0FB14
:10367000F5F06FF01801484306EB800108EB0110EC
:10368000B0FBF5F000F0F006FEF7BAF800EBC00171
:1036900001EB001061688900B0FBF1F0B0FBF5F0C0
:1036A00006EB0016FEF7ACF800EBC00101EB0010D2
:1036B00061688900B0FBF1F7FEF7A2F800EBC001EA
:1036C00001EB001061688900B0FBF1F0B0FBF5F090
:1036D0006FF01801484307EB800108EB0110B0FBC5
:1036E000F5F000F00F00A9E70014014000100140C0
:1036F0002DE9F041984617460E460446069D1DE00A
:10370000681C1BD02DB1FDF7CDFCA0EB0800A84232
:1037100014D92068C16821F4D071C1602068416962
:1037200021F001014161202084F8390084F83A0039
:10373000002084F838000320BDE8F081206800688C
:1037400036EA000004D00020B842D9D00020F3E7C8
:103750000120F9E7FEE7411A01F121026FF00500AF
:10376000032A06D34A1C032A03D31F39032900D393
:10377000002070472DE9F04105462DED088B0E46DF
:103780001B21B0F84000B5F8742001EB1031C2F3F2
:10379000090060F30F04B0F5007F03DBA0F5806043
:1037A00060F30F04900A60F31F441F2802DD4038C5
:1037B00060F31F4404EB244060F31F44B5F872002B
:1037C000574AC0F3090000EE100AB8EE408A18EE1E
:1037D000100A904203DD9FED530A38EE408A0846F6
:1037E000FCF7CAFE41EC110B9FED4F9BB0EE490A6E
:1037F000F0EE690A00F0D4FEB0EE401AF0EE601A66
:10380000B0EE41AAF0EE61AA18EE100AFCF7C1FE74
:1038100053EC1A2BFCF730FEFCF7CEFE01EE900ABB
:10382000B5F8720011EE907A800A00EE100A404955
:10383000B8EE401A11EE100A884203DD9FED3D0AF2
:1038400031EE401ADFED3C0AB7EE000A95F876003B
:1038500001EE200ADFF8E4809FED39BA60EE218A9C
:1038600000EE100AB8EE408A18EE100A404501DD5D
:1038700038EE4B8A95F87000C0F303100830FCF75F
:103880007BFE41EC110BB0EE490AF0EE690A00F044
:1038900087FEB0EE40AAF0EE60AA18EE100AFCF720
:1038A00078FE53EC1A2BFCF7E7FDFCF785FE30623F
:1038B000B5F87600000A00EE100AB8EE408A18EE5D
:1038C000100A404501DD38EE4B8AB5F87000C0F3B0
:1038D0000320FCF751FE41EC110BB0EE490AF0EE6B
:1038E000690A00F05DFEB0EE409AF0EE609A18EEC4
:1038F000100AFCF74EFE53EC192BFCF7BDFDFCF74C
:103900005BFEF061A6F55B6606F500562014376095
:10391000C6ED018A34817081BDEC088BBDE8F08171
:103920000080FF43000080440000000000000040D1
:103930000000F841000080420000003C0000FE4210
:103940000000804390F87800094A00EE100AB8EEB3
:10395000400A10EE100A904203DDDFED060A30EE59
:10396000600ADFED050A20EE200A81ED060A7047A5
:103970000000FE42000080430000003DB0F86620D9
:10398000100A7F2801DDA0F580704001D2B24FF40B
:10399000404303EB421208804A80704710B5828A88
:1039A000802303EA121282F08003B0F86A20204CD0
:1039B00002F03F0000EE100AB8EE400A10EE100AC6
:1039C000A04203DDDFED1B0A30EE600ADFED1A0ACC
:1039D000C2F38410194C60EE200A00EE100A9FED2D
:1039E000181AB8EE400A10EE100AA04201DD30EEBF
:1039F000410AF6EE001AD00A60EE211A00EE100A13
:103A0000B8EE400A10EE100AA04201DD30EE410A85
:103A1000B4EE001A81F8253001F5805120EE010A3C
:103A2000C1ED970AC1ED981A81ED990A10BD000009
:103A30000000F841000080420000803D000070411D
:103A400000000042B0F96000B0F5004F00DB00B2AA
:103A500088827047B0F878000A4A000A00EE100A1F
:103A6000B8EE400A10EE100A904203DDDFED060AC0
:103A700030EE600ADFED050A20EE200A81ED0A0A29
:103A8000704700000000FE42000080430000003943
:103A900030B530F87E2F6FF02703C2F3013202EB0E
:103AA00082025200A1F840300023A1F8423010F801
:103AB0000439C3F30313A1F844308488C4F3032406
:103AC00013FB02F3A1F8443014FB0232A1F84620A4
:103AD0004FF4C872A1F848200279224D02F00F037A
:103AE000012208339A400378DFED1F0A00EE103AF6
:103AF000B8EE400A81ED0B0A03881B0A00EE103A6B
:103B0000B8EE400A81ED0C0A837800EE103AB8EE68
:103B1000400A81ED0D0A4088000A00EE100A0020DC
:103B2000B8EE400A81ED0E0A01EB800393ED0B0A1B
:103B300010EE104AAC4203DD30EE600A83ED0B0A52
:103B4000B0EE401A00EE102A401C0428B8EEC00A5D
:103B5000C1EE001AC3ED0B1AE6DB9FED040A81EDFE
:103B60000F0A30BD0000FE420000804317B751B974
:103B700070B50C462DED048B0546B0F86410254A4F
:103B8000880A00EE100AB8EE400A10EE100A9042C1
:103B900003DDDFED210A30EE600ADFED200AC1F31C
:103BA00009001F4920EE208A00EE100AB8EE400AF4
:103BB00010EE100A884203DDDFED1A0A30EE600ACB
:103BC000F4EE000AB5F862609FED171B60EE208AE4
:103BD0009FED170B00F0E4FC288CB0EE409AF0EE5D
:103BE000609A00F47040FCF7C7FC53EC192BFCF70B
:103BF00043FC9FED111B53EC112BFCF724FBFCF74E
:103C0000DBFC84ED018AC4ED028AA6812061BDEC53
:103C1000048B70BD0000F841000080420000803934
:103C20000080FF43000080440000000000002C40A2
:103C300000000000000000400000000000002040E4
:103C40002DE9F04F07462DED068BADF6145D884645
:103C5000B0F84000C0F30311CDF8001DC0F30321FC
:103C6000CDF80C1D1E2100F00F0C01EB1034B7F83D
:103C70004200CDF8080D00220DF5496007EB420126
:103C80009300B1F84410521C01F00F0540F8235086
:103C900000EB8303C1F303155D60C1F30325090B3A
:103CA000C3E90251062AE9DB5FF0000150F8212048
:103CB000072A02DD103A40F82120491C1829F5DBBB
:103CC00000220DF5416107EB42039500B3F8503037
:103CD000521C03F00F0641F8256001EB8505C3F384
:103CE00003166E60C3F303261B0BC5E90263082AA3
:103CF000E9DB002251F82230072B02DD103B41F8AE
:103D00002230521C202AF5DB012000FA0CFB002691
:103D1000DFED6F8A0DF1100A2046FCF72DFC9FEDB8
:103D20006D9BB6EE008A08F58059CDF8F41C019021
:103D30005FF0000505EB461007EB40010AEB80043D
:103D4000B1F88010C1F3051100EE101A6349B8EE06
:103D5000401A11EE100A84ED001A884205DD9FED2D
:103D6000600A31EE400A84ED000A00EE10BAD4ED8C
:103D7000000A0DF54960B8EEC00A20EE800A84ED15
:103D8000000A50F82600DDF80C1D8840DDF8081DFB
:103D900042180DF54160DDF8001D50F825008840FF
:103DA000104400EE900AF8EEE00A30EE800AF0EEE1
:103DB000690A84ED000ADDF8F41C0198B0EE490AA6
:103DC00041EC110B00F0ECFBB0EE401AF0EE601A83
:103DD000B0EE41AAF0EE61AA2068FCF7DAFB53ECE2
:103DE0001A2BFCF749FBFCF7E7FB01EE100A6D1CF0
:103DF00084ED001A99ED940AD9ED950A202D30EE44
:103E0000200AD8ED060A20EE200A00EE481A84EDBA
:103E1000001A88EE810A84ED000A8BDB761C182ECE
:103E200086DB9DED041A012057464FF4407600BF13
:103E300007EB800191ED000AB4EEC10AF1EE10FA31
:103E400001DDB0EE401A401CB042F1DB0024B0EEC0
:103E5000000A4FF08E4103E021EE001A641CE4B228
:103E600011EE100A8842F7DB00252046FCF784FBA0
:103E70008A4681464AEC119BB0EE490AF0EE690A87
:103E800000F08EFBB0EE40AAF0EE60AA57F82500D5
:103E9000FCF77FFB53EC1A2BFCF77CFAFCF78CFB4E
:103EA00000EE100A08EB45016D1C30EE080AB54221
:103EB000BCEEC00A10EE100AA1F84A00DADB88F85E
:103EC0004A460DF6145DBDEC068BBDE8F08F000090
:103ED000BD37863500000000000000400000F841BA
:103EE000000080422DE9F0410E46002107460C46B5
:103EF0000D4608464FF6FF7306EB410202F580526D
:103F0000491CA2F8683289B2A2F872320529F3D3AB
:103F100000214FF4407300BF07EB4102B2F880204C
:103F2000BAB1D20707D006EB450202F580526D1CEC
:103F3000A2F87212ADB2491C89B2994203D2052C83
:103F400001D2052DE8D3042C0CD96FF00200BDE896
:103F5000F08106EB440202F58052641CA2F868125C
:103F6000A4B2E8E7042D02D96FF00300EFE761196E
:103F7000042902D96FF00400E9E7002317E006EBFB
:103F800043015F1C01F580580DE000BF06EB4700C0
:103F900000F58050B0F86812B8F86802FFF7DBFB54
:103FA0000028D4D17F1CA742F0DB5B1C9BB2A3424C
:103FB000E5D3002317E006EB43015F1C01F58058B1
:103FC0000DE000BF06EB470000F58050B0F872121C
:103FD000B8F87202FFF7BFFB0028B8D17F1CAF42D0
:103FE000F0DB5B1C9BB2AB42E5D3002317E006EB92
:103FF0004301002701F580580DE000BF06EB4700A4
:1040000000F58050B0F87212B8F86802FFF7A3FB11
:1040100000289CD17F1CAF42F0DB5B1C9BB2A3420B
:10402000E5D394E72DE9F04F8B46018CB0F922409F
:10403000B8B001F00F09C1F3031CC1F3032AB4F5B2
:10404000004F00DB24B2002120AA00EB41038D00C9
:104050009B8C491C03F00F0642F8256002EB850596
:10406000C3F303166E60C3F303261B0BC5E902639B
:104070000629EADB5FF0000152F82130072B02DD50
:10408000103B42F82130491C1829F5DB0023694612
:1040900000EB43059E002D8E5B1C05F00F0741F8D9
:1040A000267001EB8606C5F303177760C5F3032777
:1040B0002D0BC6E90275082BEADB002351F82350CB
:1040C000072D02DD103D41F823505B1C202BF5DB52
:1040D0000023964600225EF8235005FA0AF500BF39
:1040E00002EB431600EB46070BEB4606B7F8807071
:1040F000BF0AA6F84C761F2F02DD403FA6F84C768B
:1041000031F82280BFB207FA09F708FA0CF8A84480
:1041100027444744521CA6F84C76202AE0DB5B1C5F
:10412000182BD7DB38B0BDE8F08F00002DE9F04F39
:1041300089462DED068BADF6044DB0F86820110BC5
:10414000072900DD10398DF8001CC2F3032107296F
:1041500000DD10398DF8021CC2F30311072900DDC0
:1041600010398DF8011C02F00F01072900DD10390C
:104170008DF8031CB0F870000025C0F303200DF586
:1041800040686F46FCF7F8F98B4682469FED529BDC
:104190005FF0000404EB4510C11700EBD16200EBA7
:1041A000916189115211494202EB410100EBD07239
:1041B00022F00102821A02EB4101C9B218F9011082
:1041C00007EB800600EE101A4BEC11ABF0EE690A1B
:1041D000B8EEC00A86ED000AB0EE490A00F0E0F938
:1041E000B0EE408AF0EE608A3068FCF7D2F953EC0A
:1041F000182BFCF741F9FCF7DFF9641C3060202C28
:10420000C8DB6D1C182DC3DB9DED000A01244FF4A3
:104210004076B0EEC08A00BF07EB840595ED000A3A
:1042200000F06AF9B4EEC80AF1EE10FA03DD95ED7C
:10423000000AB0EEC08A641CB442EDDB0025B0EE8B
:10424000000A4FF0854103E028EE008A6D1CEDB2B4
:1042500018EE100A8842F7DB00242846FCF78CF998
:104260008A468046B6EE00AA4AEC118BB0EE490AA7
:10427000F0EE690A00F094F9B0EE408AF0EE608A40
:1042800057F82400FCF785F953EC182BFCF782F85B
:10429000FCF792F900EE100AB5EEC00AF1EE10FA42
:1042A00002D230EE4A0A01E030EE0A0A09EB0401BC
:1042B000641CB442BDEEC00A10EE100A81F84D0F26
:1042C000D2DB41F24D2000F809500DF6044DBDEC53
:1042D000068BBDE8F08F00000000000000000040E9
:1042E0002DE9F34F07462DED068BADF60C4DB0F8DA
:1042F0006C1041F307207F2800DD40B28DF8080CD8
:1043000048B27F2800DD40B28DF80A0CB7F86E1075
:1043100041F307207F2800DD40B28DF8090C48B238
:104320007F2800DD40B28DF80B0C97F87000002656
:10433000C0F3031100F00F02012000FA02F9DFF8C8
:10434000ACA10DF6084BE84601F10800FCF714F9A2
:104350009FED679B0DF5406203C2002505EB4610FB
:10436000C11700EBD16200EB9161891152114942F2
:1043700002EB410100EBD07222F00102821A02EB43
:10438000410107EB400208EB800492F88020C9B29B
:10439000C2F3420200EE102AB8EE401A11EE100AE3
:1043A00084ED001A504505DDB2EE000A31EE400AF8
:1043B00084ED000A00EE109AD4ED000AB8EEC00AAF
:1043C00020EE800A84ED000A1BF9010000EE900A3D
:1043D0000DF54060F8EEE00A30EE800AF0EE690A72
:1043E00084ED000A03C8B0EE490A41EC110B00F05D
:1043F000D7F8B0EE408AF0EE608A2068FCF7C9F882
:1044000053EC182BFCF738F8FCF7D6F86D1C20603D
:10441000202DA3DB761C182E9FDB9DED000A0124C6
:104420004746B0EEC08A4FF4407600BF07EB8405E4
:1044300095ED000A00F060F8B4EEC80AF1EE10FA4B
:1044400003DD95ED000AB0EEC08A641CB442EDDBDA
:104450000025B0EE000A4FF0854103E028EE008A07
:104460006D1CEDB218EE100A8842F7DB00242846D6
:10447000FCF782F889468046B6EE008A49EC118B3B
:10448000B0EE490AF0EE690A00F08AF8B0EE40AAF0
:10449000F0EE60AA57F82400FCF77BF853EC1A2BD7
:1044A000FBF778FFFCF788F800EE100AB5EEC00ABB
:1044B000F1EE10FA02D230EE480A01E030EE080ABE
:1044C000DDF8281C2144BDEEC00A641CB44210EE85
:1044D000100A81F84C0CD1DBDDF8280C80F84C5F19
:1044E0000DF60C4DBDEC068BBDE8FC8F0000404086
:1044F0000000000000000040B0EEC00A704700F06D
:1045000077BE00000FB4054B10B503A9044A02980A
:1045100001F036F810BC5DF814FB0000A15E000845
:10452000BC0000200FB4084B10B504A902AA0398E0
:1045300001F026F8044602A9002001F0B8FB20464D
:1045400010BC5DF814FB0000AF5C000803B40198D8
:104550004100009850EAC12018BF04204A0D18BF3E
:1045600040F0010040F2FF72B2EB515F08BF40F033
:104570000200012808BF052002B070470907090E94
:10458000002804DB00F1E02080F80014704700F000
:104590000F0000F1E02080F8141D704700000000BB
:1045A0002DE9F04D2DED040B2DED0E8B96B0DDE9D0
:1045B0002550279CDDF890A025F0004624F0004807
:1045C000BAF1000F14BF0121002101EB4502FC49A3
:1045D00053184A1093422AD3002814BF0123002302
:1045E00003EB44030B44F7498B4220D358EA000104
:1045F0009FEDF59B76D0DFF8D8B35D4503D1BAF1D6
:10460000000F05D188E0BAF1000F08BF002100D0EB
:10461000012101EB450111F5001F08D8002814BF46
:104620000121002101EB440111F5001F0BD99DED83
:10463000261B9DED240B16B0BDEC0E8B04B0BDE81F
:10464000F04D00F089BE0027002DBCBFE149884530
:1046500021DAE1498845A8BF02271CDAC3451ADCE4
:10466000DE4901EB2851142908DDC1F1340220FA9A
:1046700002F101FA02F282420DD108E058B9C1F10B
:10468000140228FA02F101FA02F2424503D101F0C4
:104690000101C1F1020756EA0A0124D1002C22DAF5
:1046A000002D18BF022F01D0012F0AD0022000F0E8
:1046B0009FFE16B0BDEC0E8B04B0BDE8F04D00F0CF
:1046C00033BE022000F094FE00F02EFE51EC100BE1
:1046D00081F0004141EC100B16B0BDEC0E8B04B024
:1046E000BDE8F08D18E09FEDBEAB9FEDBF8B0028BD
:1046F00071D1B848804522D105F1804010F5801075
:1047000008BFBAF1000F07D0B3450ADC002CA8BFE0
:104710009DED260BE0DA0DE0B0EE490AF0EE690AF5
:10472000DAE7002C06DA9DED260B51EC100B81F038
:1047300000416FE0AE48784490ED000BCCE7D845DF
:104740004DD1002C48DA2EB186423AD1BAF1000F91
:1047500042D126E0BAF1000F13D0022000F048FE4B
:1047600000F016FE8DED020B9DED240B8DED000B80
:1047700010EE900A039961F31E0003909DED020B69
:10478000AAE78DED02AB9DED240B1AEE901A10EE08
:10479000900A8DED000B61F31E0003909DED020B5E
:1047A0009AE78DED028B9DED240B18EE901A10EE1A
:1047B000900A8DED000B61F31E0003909DED020B3E
:1047C0008AE709DA9DED240B51EC190B53EC102B01
:1047D000FBF752FE1EE020E09DED240B7CE78642B5
:1047E0001BDAB4F1804F0DD0A4F10050B0F1FF50AE
:1047F00013D1002D11DB9DED240B51EC100B01F0BA
:10480000CDFF07E09DED240B53EC102B51EC100B6A
:1048100000F0C2BC41EC100B5EE79DED240B51ECA7
:10482000100B01F031FBBAF1000FCDE90E0142D1BE
:104830009FED710B46B3A6F1E040B0F17F600CD064
:104840005E4538D1002D00DAA7B3022F0CBF01203E
:104850004FF0FF30FBF77FFEDCE7002D01DD002C81
:104860000DDA002D01DD002C1FDB002D16DA002CE7
:1048700014DB012F08BF9FED620B3FF42DAFB0EEAC
:104880004A0AF0EE6A0A27E7022F18BF002D0CD063
:10489000012F0AD1002DFFF61FAF06E0002DB8BF93
:1048A000002C08DA012F3FF417AFB0EE480AF0EE03
:1048B000680A11E71BE0012000EBE57050EA0701F0
:1048C00015D0791EB0EE498AF0EE698A084308BF18
:1048D0009FED4D8B4E480025804570DD4D494E487B
:1048E000884514DDB0420DDB002C19DB2FE00120E0
:1048F00000F07EFD16B0BDEC0E8B04B0BDE8F04DAF
:1049000000F036BDB34502DC002C09DC1FE0864216
:1049100002DA002C1BDA03E05E452BDD002C16DDED
:10492000022000F065FD00F033FD8DED020B53EC2D
:104930001A2B51EC180BFBF72DFDCDE90001039963
:10494000019861F31E0003909DED020BC4E6022066
:1049500000F04EFD00F02CFD10EE901A18EE900ABB
:104960008DED020B8DED008B61F31E0003909DED2C
:10497000020BB1E69DED0E0B53EC192B51EC100B15
:10498000FBF702FD9FED260BCDE9080153EC102B40
:104990009DED080B51EC100BFBF7FCFC9FED221B6F
:1049A00053EC112BFBF7F3FC9DED081B53EC112B83
:1049B000FBF7F0FC9FED1E1B53EC112B3CE08CE051
:1049C000FFFF1F00FFFF0F00000000000000F03F8E
:1049D0000000F03F0000F07F0000404301FCFFFFBB
:1049E000000000000000F07F000000000000000058
:1049F000E6560000000000000000000000000080FB
:104A0000000000000000F0FF000000000000F0BF08
:104A10000000E0410000F043FFFFEF3F0000000016
:104A2000000000000000D03F555555555555D53F65
:104A3000000000000000E03FFBF7A9FC9DED080B23
:104A400041EC1A0B53EC102B51EC100BFBF7A2FCB2
:104A500053EC1A2BFBF79EFC41EC1A0B9FEDFE0B5F
:104A600053EC102B9DED080B51EC100BFBF792FC57
:104A700041EC1B0B9FEDFA0B51EC1A0B53EC102B76
:104A8000FBF788FC41EC1A0B9FEDF70B53EC102B56
:104A90009DED080B51EC100BFBF77CFC53EC1A2B33
:104AA000FBF772FC41EC1A0B51EC1B0B53EC1A2B6D
:104AB000FBF7C9FB0690CDE906519DED060B53ECC3
:104AC0001B2B51EC100BFBF75FFC53EC1A2BFBF785
:104AD0005EFC41EC100B00F0A1B90020B6F5801F80
:104AE0000EDA9FEDE30B53EC102B9DED0E0B51EC0A
:104AF000100BFBF74FFCCDE90E016FF034000E46B2
:104B000000EB2650A0F2FF37C6F31300DA4940F05D
:104B10007F6646F040568842D8BF002408DDD7495A
:104B20008142C8BF012403DC0024A6F580167F1C47
:104B3000D348784400EBC4000F9690ED00CB9DED78
:104B40000E0B53EC1C2B51EC100BFBF71DFC9DEDD9
:104B50000E0B41EC1B0B53EC1C2B51EC100BFBF719
:104B600072FB41EC100B51EC190B53EC102BFBF7C3
:104B700083FC41EC1D0B51EC1B0B53EC1D2BFBF785
:104B800009FC41EC1A0BBF488DED10AB7844109531
:104B900090ED000B4FF0005040EA660000EB8440BF
:104BA0008DED080B00F5002009909DED080B53ECEE
:104BB0001C2B51EC100BFBF7E7FB9DED0E1B53EC90
:104BC000112BFBF7E4FB41EC100B53EC102B9DED8C
:104BD000100B51EC100BFBF7DDFB9DED080B41ECCE
:104BE0001C0B53EC102B9DED100B51EC100BFBF735
:104BF000D1FB53EC1B2BFBF7CAFB53EC1C2BFBF735
:104C0000C3FB53EC1D2BFBF7C5FB41EC1C0B53EC1A
:104C10001A2B51EC1A0BFBF7BDFB41EC1B0B9A480E
:104C20000621B0EE4B0AF0EE6B0A784400F0FDFA74
:104C3000B0EE401AF0EE601AB0EE41DAF0EE61DA52
:104C400053EC1B2B51EC1B0BFBF7A4FB53EC1D2B64
:104C5000FBF7A0FB9DED100B41EC1B0B53EC1A2B4B
:104C600051EC100BFBF7EFFA53EC1C2BFBF792FB0C
:104C700053EC1B2BFBF7E7FA9DED100B41EC1B0BE4
:104C800053EC102B51EC100BFBF784FB41EC1D0B8C
:104C90009FED7FEB53EC1E2BFBF7D5FA53EC1B2B50
:104CA000FBF7D1FA0890CDE908519DED080B53ECC4
:104CB0001E2B51EC100BFBF767FB53EC1D2BFBF786
:104CC00063FB53EC1B2BFBF762FB9DED080B41ECE8
:104CD0001D0B53EC102B9DED100B51EC100BFBF743
:104CE00059FB41EC1B0B53EC1A2B51EC1D0BFBF742
:104CF00051FB9DED080B41EC1A0B53EC102B51ECC2
:104D00001C0BFBF747FB53EC1A2BFBF79CFA41EC0F
:104D10001A0B51EC1B0B53EC1A2BFBF794FA0C906B
:104D2000CDE90C519DED0C0B53EC1B2B51EC100BF2
:104D3000FBF72AFB53EC1A2BFBF729FB41EC1B0B6F
:104D40009FED550B53EC102B9DED0C0B51EC100B04
:104D5000FBF720FB41EC1A0B9FED510B51EC1B0BA9
:104D600053EC102BFBF716FB41EC1B0B9FED4E0B8E
:104D700053EC102B9DED0C0B51EC100BFBF70AFBC9
:104D800053EC1B2BFBF75FFA41EC100B48487844BF
:104D900000EBC40090ED001B51EC100B53EC112BF9
:104DA000FBF751FA41EC1B0B3846FBF7D4FBCDE97E
:104DB000080153EC1B2B51EC1A0BFBF744FA41ECA6
:104DC000100B3C48784400EBC40090ED00CB51EC54
:104DD000100B53EC1C2BFBF736FA9DED081B53EC24
:104DE000112BFBF730FA0690CDE906519DED080B2B
:104DF00053EC102B9DED060B51EC100BFBF7C4FA96
:104E000053EC1C2BFBF7C0FA53EC1A2BFBF7BCFA44
:104E100053EC1B2BFBF7BBFA41EC100B9DED261B53
:104E200053EC102B8DED001B00959DED260B51ECE6
:104E3000100BFBF7AFFA9DED000B41EC1A0B53EC96
:104E4000102B9DED260B51EC100BFBF79DFA9DED01
:104E5000061B53EC112B2FE0000000604715F73FB5
:104E6000FE822B654715F73F44DF5DF80BAE543EDD
:104E700000000000000040438E9803007AB60B004B
:104E800062520000905200009A51000000000000A1
:104E90000000000000000840000000E009C7EE3FED
:104EA000FD033ADC09C7EE3FF5015B14E02F3EBE7F
:104EB00026500000E04F0000FBF76CFA53EC1A2B71
:104EC000FBF7C1F99DED060B41EC1A0B53EC102BCF
:104ED0009DED000B51EC100BFBF75CFACDE90C01DA
:104EE0009DED0C0B51EC1A0B53EC102BFBF7ABF9AF
:104EF000CDE902010C46AA498C422FDB611A084316
:104F000018D19DED0C0B53EC102B9DED020B51ECC9
:104F1000100BFBF739FA41EC1B0B9FEDA30B51EC87
:104F20001A0B53EC102BFBF78EF953EC1B2BFBF7F2
:104F300069FC2DD2022000F05BFA00F029FA10EE95
:104F4000901A18EE900A8DED020B8DED008B61F337
:104F50001E0003909DED020BFFF7BEBB944A24F0A8
:104F60000041914214D39349214408437FF4EFACAC
:104F70009DED0C0B53EC102B9DED020B51EC100B27
:104F8000FBF702FA53EC1A2BFBF73CFC7FF6DFAC85
:104F900024F000408849894A002601EB20518242D2
:104FA0002BDA481C4FF4801121FA00F02044844A87
:104FB000C0F30A517A44A1F2FF3192ED000B814A0D
:104FC0008DED080BCA4020EA0202C0F3130040F442
:104FD0008010C1F1140120FA01F60992002CB8BF2B
:104FE00076429DED080B53EC102B9DED0C0B51EC14
:104FF000100BFBF7C9F9CDE90C019DED0C0B51EC41
:105000001A0B53EC102BFBF71EF99FED6F0B08905A
:10501000CDE9085153EC102B9DED080B51EC100B12
:10502000FBF7B8F941EC1B0B9FED690B53EC102B10
:105030009DED080B51EC100BFBF7ACF99DED0C0B43
:1050400041EC1C0B53EC102B9DED080B51EC100B9D
:10505000FBF79AF953EC1A2BFBF799F99FED5E1BBE
:1050600053EC112BFBF796F953EC1C2BFBF7EBF8E9
:1050700041EC1A0B51EC1B0B53EC1A2BFBF7E3F82A
:10508000CDE902019DED020B53EC1B2B51EC100BF3
:10509000FBF77AF953EC1A2BFBF779F99DED020B2C
:1050A00041EC1A0B53EC102B51EC100BFBF772F97F
:1050B000CDE908014A489DED080B0521784400F030
:1050C000B4F89DED081B51EC100B53EC112BFBF7C2
:1050D00061F99DED021B53EC112BFBF758F9CDE95B
:1050E00006019DED020B53EC1A2B51EC100BFBF754
:1050F00051F953EC1A2BFBF7A6F89FED3B0B41EC53
:105100001A0B53EC102B9DED060B51EC100BFBF71B
:105110003BF99DED060B41EC1B0B53EC102B9DED69
:10512000020B51EC100BFBF735F953EC1B2BFBF783
:10513000A3F953EC1A2BFBF727F99DED021B53EC57
:10514000112BFBF721F953EC192BFBF720F9CDE9D3
:10515000020101EB065001150029C8BF039015DCC0
:105160009DED020B324651EC100BFBF71CFBFFF7D9
:10517000EDF9042808BF00F01BF932469DED020B43
:1051800051EC100BFBF70FFBCDE902019DED020B7B
:1051900051EC180B53EC102BFBF7FCF8FFF73ABB64
:1051A0000000904000000000FE822B654715973CF0
:1051B00000CC904000346F3F01FCFFFF0000E03F57
:1051C000684E0000FFFF0F0000000000432EE63F86
:1051D000396CA80C615C20BEEF39FAFE422EE63F26
:1051E000384D0000000000000000000000000040FA
:1051F00010B52DED028BB1EEC08A18EE100A20F02A
:105200000040C0F1FF40C00F0AD010EE100A20F09D
:105210000040C0F1FF40C00F04BF012000F0E8F8DB
:10522000B0EE480ABDEC028B10BD70B504462DED02
:10523000028B4D1E00EBC500B0EE408AF0EE608A96
:1052400090ED000B35F0060017D053EC182B51EC05
:10525000100BFBF79FF841EC100B6D1E04EBC50023
:1052600090ED001B51EC100B53EC112BFAF7EBFFF8
:1052700041EC100B35F00600E7D1022D36D0042D9D
:105280001CD0062D1CBFBDEC028B70BD53EC182B3F
:1052900051EC100BFBF77EF894ED0A1B53EC112B2D
:1052A000FAF7D1FF53EC182BFBF774F894ED081BB9
:1052B00053EC112BFAF7C7FF41EC100B53EC182BF2
:1052C00051EC100BFBF766F894ED061B53EC112B19
:1052D000FAF7B9FF53EC182BFBF75CF894ED040BCD
:1052E00053EC102BFAF7AFFF41EC100B53EC182BDB
:1052F00051EC100BFBF74EF894ED021B53EC112B05
:10530000FAF7A1FF53EC182BFBF744F894ED001BC0
:1053100053EC112BFAF797FFBDEC028B41EC100B0D
:1053200070BD0000000000009FED070B10B553ECAE
:10533000102B9FED070B51EC100BFBF79DF841EC88
:10534000100B10BD00000000000000000000000075
:10535000000000000000F03F10B553EC112B51ECA1
:10536000100BFAF770FF41EC100B10BD00000000AD
:105370009FED050B10B553EC102B51EC100BFBF708
:105380007BF841EC100B10BD000000000000000095
:105390009FED050B10B553EC102B51EC100BFAF7E9
:1053A000F9FF41EC100B10BD000000000000007080
:1053B0009FED050B10B553EC102B51EC100BFAF7C9
:1053C000E9FF41EC100B10BD0000000000000010D0
:1053D00002E008C8121F08C1002AFAD170477047BE
:1053E000002001E001C1121F002AFBD1704700001C
:1053F0000149086070470000C00000202DE9FF5FF0
:1054000082B00021DDE90430020DDDF840B0034335
:1054100018D044F61050A2F2FF32424315141198EE
:1054200001281FD0A5EB0B00401C5FEA000A4FF0DB
:1054300000064E4FDFF83891B046504615D5CAF1F8
:10544000000413E0119801244AA3012801D16FEA56
:105450000B010298119AC0E90031C0E9024206B07E
:10546000BDE8F09FCBF10000DFE704460021404A91
:10547000491842EB0450CDE9001012E0E00707D0D4
:1054800032463B4640464946FAF784FF8046894605
:1054900032463B4610461946FAF77CFF06460F4651
:1054A0006410002CEAD1DDE90401DDE90023BAF142
:1054B000000F06DAFAF76EFF42464B46FAF76AFF2C
:1054C00005E0FAF7D9FF42464B46FAF7D5FF044606
:1054D0000E460022284BFBF795F903D84FF0FF301A
:1054E000014607E00022254B20463146FAF7ABFE85
:1054F000FBF770F9102409E0002C0ADB0A220023D4
:10550000FAF75EFE039B30321A55641E50EA010220
:10551000F2D1641C039AC4F111031444119A012AB4
:1055200003D0012208430DD10AE0084304D0002033
:105530004FF0110B119072E7A3EB0B056D1E0DE000
:105540005B4504DD4FF0000205F1010504E003DADC
:105550004FF00002A5F10105002AECD00298119944
:10556000C0E90231C0E9004579E7000000001440BD
:105570000000F03F300000000000F0430000E03F7A
:105580002DE9FF4F95B09B468946064600250FE260
:10559000252877D100242746F84A0121059400E008
:1055A000044316F8013F203B01FA03F01042F7D103
:1055B00030782A2811D06FF02F033078A0F1300214
:1055C000092A16D8059A44F0020402EB820203EB82
:1055D00042021044761C0590EFE759F8042B05921F
:1055E000002A03DA504244F40054059044F00204C7
:1055F000761C30782E2816D116F8010F44F00404DA
:105600002A280DD06FF02F023078A0F13003092B3B
:1056100009D807EB870302EB4303C718761CF3E7AF
:1056200059F8047B761C30786C280FD006DC4C28A7
:1056300017D068280DD06A2814D104E0742810D03F
:105640007A280FD10DE044F400140AE044F48014E9
:1056500001E044F440147278824202D104F58014CF
:10566000761C761C307866280BD013DC582877D04F
:1056700009DC002875D04528F6D04628F4D0472804
:105680001AD19DE118E0632835D0642879D06528C7
:1056900012D195E1702873D008DC6728F1D0692811
:1056A0006FD06E280DD06F2806D1B5E073282CD0AE
:1056B000752875D0782874D05A46179990476D1C74
:1056C00075E1C4F30250022809D003280DD0D9F89F
:1056D000001004280DD00D6009F1040967E1D9F824
:1056E0000010EA17C1E90052F6E7D9F800100D8062
:1056F000F2E70D70F0E719F8041B8DF80010002098
:105700008DF80100EA46012003E059F804AB4FF0A0
:10571000FF3061074FF0000102D40DE008F10101F4
:105720008846B9420FDA8045F8DB1AF808100029DC
:10573000F4D108E008F1010188468142FADB1AF849
:1057400008100029F6D105985B46A0EB0807214612
:105750003846179A00F094FA284400EB080507E051
:105760004DE029E10DE01AF8010B5A4617999047D0
:10577000B8F10108F7D25B4621463846179A13E183
:1057800042E00A220092C4F302524FF0000A022AB9
:1057900008D059F804CB032A4FEAEC710AD00DE087
:1057A00029E02AE009F1070121F00702F2E802C12D
:1057B000914609E00FFA8CFC4FEAEC71042A03D100
:1057C0004FFA8CFC4FEAEC71002907DA0A460021F7
:1057D000DCF1000C61EB02012D2202E0220504D570
:1057E0002B228DF80420012203E0E20701D02022C1
:1057F000F7E7904659E00A2102E010220DE010215F
:105800004FF0000A00910BE010224FF0000A44F024
:1058100004040827009203E008224FF0000A0092D7
:10582000C4F30252022A05D059F804CB0021032AFE
:1058300008D009E009F1070121F00702F2E802C1EE
:10584000914605E01FFA8CFC042A01D10CF0FF0CF4
:105850004FF00008220728D5702806D0009B83F05F
:10586000100353EA0A0305D00EE040228DF804200D
:10587000012208E05CEA010206D030228DF8042003
:105880008DF8050002229046009B83F0080353EA3E
:105890000A030AD15CEA010201D1620705D5302270
:1058A0008DF804204FF001087F1E582804D034A042
:1058B00003900EA802900DE036A0F9E7534660462B
:1058C000009AFAF77DFC84460398825C0298401E99
:1058D000029002705CEA0100F0D1029806A9081A51
:1058E00000F1200A600702D524F4803400E001278B
:1058F000574502DDA7EB0A0000E0002000EB0A019B
:10590000009005984144401A0590E00306D45B4698
:105910002146179A059800F0B3F90544002706E0E0
:1059200001A85A46C05D179990476D1C7F1C4745DA
:10593000F6DBE0030CD55B462146179A059800F08C
:105940009FF9054404E030205A46179990476D1C92
:105950000099481E00900029F5DC08E002980299A1
:105960005A460078491C0291179990476D1CBAF16C
:105970000001AAF1010AF1DC65E10000092801003B
:1059800030313233343536373839616263646566B5
:105990000000000030313233343536373839414277
:1059A000434445460000000000F058F90544761CC9
:1059B000307800287FF4ECAD19B02846BDE8F08FB0
:1059C000620700D4062709F1070222F0070CFCE861
:1059D0000223E14603F000485FEA080C02D00FF210
:1059E000702C0DE05FEA045C02D50FF2682C07E032
:1059F0005FEAC47C02D00FF2602C01E0AFF2700CC1
:105A00004FF0FF3823F00043CDF850C065280CD08C
:105A100006DC452809D046281DD047283DD13DE069
:105A2000662818D067287ED138E00021112F01DBCD
:105A3000112000E0781CCDE9000106A90EA8FFF7AF
:105A4000DDFCDDE90F010E9A03910021009207F1C0
:105A5000010A04914DE04FF000400097CDE901109C
:105A600006A90EA8FFF7CAFCDDE90F0203920E9B00
:105A700011990022DDF80CA00093049211B9791C51
:105A800000EB010AB7EB0A0004D4C0F1FF3007F1C4
:105A9000010A0490AAEB0700019044E0012F00DA0C
:105AA00001270021112F01DD112000E03846CDE94A
:105AB000000106A90EA8FFF7A1FCDDE90F010E9A6F
:105AC0000391002104910092BA4621070CD4039956
:105AD000514500DA8A46BAF1010F05DD009AAAF1B4
