:020000040800F2
:1000000060200024590300088B43000807360008CD
:10001000894300086D160008494D000800000000E3
:10002000000000000000000000000000D1450008B2
:100030006F160008000000008D430008D34500083B
:1000400073030008730300087303000873030008B8
:1000500073030008730300087303000873030008A8
:100060007303000873030008730300087303000898
:100070007303000873030008730300087303000888
:100080007303000873030008730300087303000878
:100090007303000873030008730300087303000868
:1000A0007303000873030008730300087303000858
:1000B0007303000873030008730300087303000848
:1000C0007303000873030008730300087303000838
:1000D0007303000873030008730300087303000828
:1000E0007303000873030008000000007303000896
:1000F0007303000873030008730300087303000808
:1001000073030008730300087303000873030008F7
:1001100073030008730300087303000873030008E7
:1001200073030008730300087303000873030008D7
:1001300073030008730300087303000873030008C7
:1001400000000000000000000000000000000000AF
:1001500073030008730300087303000873030008A7
:100160007303000873030008730300087303000897
:100170007303000873030008730300080000000005
:100180007303000873030008730300087303000877
:100190007303000873030008730300087303000867
:1001A0007303000873030008730300087303000857
:1001B0007303000873030008730300087303000847
:1001C0007303000873030008730300087303000837
:1001D0007303000873030008730300087303000827
:1001E0007303000873030008730300087303000817
:1001F0007303000873030008730300087303000807
:1002000073030008730300087303000873030008F6
:1002100073030008730300087303000873030008E6
:100220007303000873030008730300080000000054
:100230007303000873030008000000007303000844
:1002400073030008730300087303000873030008B6
:1002500073030008730300087303000873030008A6
:100260007303000873030008730300087303000896
:100270007303000873030008730300080000000004
:1002800073030008730300087303000800000000F4
:10029000000000007303000800F002F800F04CF8C2
:1002A0000AA090E8000C82448344AAF10107DA45D1
:1002B00001D100F041F8AFF2090EBAE80F0013F0D7
:1002C000010F18BFFB1A43F001031847AC67000089
:1002D000CC670000103A24BF78C878C1FAD852071A
:1002E00024BF30C830C144BF04680C6070470000B0
:1002F0000023002400250026103A28BF78C1FBD82F
:10030000520728BF30C148BF0B607047662906F00E
:100310006E82642900F0EC80002070471FB506F063
:1003200061FA00F059FC04000020002106F03CFABC
:10033000E0601FBD10B510BD00F06EFD1146FFF767
:10034000EDFF06F0F9F800F08CFD03B4FFF7F2FFC3
:1003500003BC06F0D8F80000094880470948004768
:10036000FEE7FEE7FEE7FEE7FEE7FEE7FEE7FEE765
:10037000FEE7FEE704480549054A064B70470000C2
:100380008546000899020008601A002460200024B5
:10039000601C0024601C0024704753EA020C00F02B
:1003A00069802DE9F04B4FF00006002B1FBFB3FA18
:1003B00083F503FA05F424FA05F65E4012BF1643EE
:1003C000B2FA82F502FA05F4C5F120051EBF22FA41
:1003D00005FC44EA0C04203556EA044C4FEA144468
:1003E00018BF641C4FF000084FF00009904271EBF9
:1003F000030C39D3002919BFB1FA81F701FA07F6C6
:10040000B0FA80F700FA07F6C7F120071EBF20FAFE
:1004100007FC46EA0C062037B6FBF4FCA7EB050701
:10042000103F07F01F0BCBF120060CFA0BFB2CFA48
:1004300006F644BFB3460026202FA4BF5E464FF009
:10044000000B5BEA060C08BF4FF0010B19EB0B0920
:10045000ABFB027C48EB0608C01B06FB02CC0BFB87
:1004600003CC71EB0C01C1E70B46024641464846FE
:10047000BDE8F08B13B54FF000004FF00001AFF373
:100480000080BDE81C4070470FB4044910B503AAB2
:10049000029800F08FFB10BC5DF814FB0C000024E8
:1004A00070B5044685690068C10601D5302600E0B4
:1004B0002026C00707D070BDD4E9012130469047FF
:1004C000206A401C20626D1EF6D570BD70B50446D2
:1004D00085690078C00707D170BDD4E901212020CB
:1004E0009047206A401C20626D1EF6D570BD00004A
:1004F0002DE9F0410646002410687529314616A5FD
:1005000010D0AFF30080002802DA404213A507E0C4
:1005100031688A0701D512A502E0490704D511A563
:10052000012401E0AFF3008000210A2206F1240734
:1005300009E0B0FBF2FCB0FBF2F302FB1C00303030
:1005400078541846491C0028F3D123462A463046E1
:10055000BDE8F04100F0C5B8000000002D0000002B
:100560002B000000200000002DE9F0474FF0000AAA
:1005700089460446C0F820A02046E1688847002844
:1005800076D0252806D0D4E901219047206A401C66
:100590002062F1E7E168204600258847C4F81CA0E6
:1005A00006460027C4F818A02A2E09D0304605F0C8
:1005B000A3FF38B304EB8708303EC8F8186019E091
:1005C00059F8041B204604EB87029161E1688847D3
:1005D000012F064618D1E069002820DA25F0200511
:1005E0001DE0D8F8180000EB800006EB4000303822
:1005F000C8F818002046E1688847064605F07CFFE9
:100600000028EED1012F0AD02E2E08D12046E16815
:1006100088477F1C0646022F45F02005C4DBA069F1
:10062000002803DA404245F00105A061E80701D047
:1006300025F01005B6B1A6F14100192802D82036E0
:1006400045F400654A463146204625604D46FFF791
:100650005DFE58B1012806D0ED1D25F0070000F120
:10066000080989E704E005F1040985E730468AE7CF
:10067000206ABDE8F0874FF0000200B513469446AB
:100680009646203922BFA0E80C50A0E80C50B1F1EA
:100690002001BFF4F7AF090728BFA0E80C5048BFFE
:1006A0000CC05DF804EB890028BF40F8042B08BF9C
:1006B000704748BF20F8022B11F0804F18BF00F898
:1006C000012B7047704770477047704710B500F0B6
:1006D00087FA006810BD10B5044600F081FA046086
:1006E00010BD2DE9F0470D4699469246044600F1AB
:1006F00024080168880604D5E06921F01001216012
:1007000000E00120A84201DD471B00E00027A169AD
:100710007A1902EB0900081AA0612078C00602D4F9
:100720002046FFF7BDFE002608E0D4E901211AF8B3
:1007300006009047206A401C761C20624E45F4DB80
:100740002078C0060AD52046FFF7AAFE06E0D4E9C5
:10075000012130209047206A401C2062381EA7F1FA
:100760000107F4DC07E0D4E9012118F805009047FF
:10077000206A401C2062281EA5F10105F3DC2046FA
:10078000FFF7A4FE2078000602D50220BDE8F0871E
:100790000120FBE770472DE9FF4F0C461E464FF046
:1007A000FF378BB0D2E90001DDF860800A908A46FD
:1007B000C1F30A5505B93D46002108464FF0000037
:1007C000BAF1000F00F4400005DA00EB80004FF4AE
:1007D000400101EA50004FEA9059B9F1010F00DDE4
:1007E000B9460A9850EA4A000ED044F61050A5F2D5
:1007F000FF3545432F14B8F1000F1ED07542291E56
:100800001EDDC9F100021CE0B8F1010F4FF000003D
:1008100001D0302103E0F24305E02154401CB042F6
:10082000FBDB30460022002121540B99C1F80880DF
:10083000C1E900200FB0BDE8F08FBD1B6D1CDEE7E5
:100840004A4600DA694206A800F06CFA06AB93E863
:10085000070003AB83E8070050460A9900F03EFB0F
:100860008DE80700A0F500501F3800900398002D78
:100870000ADD42F21F014A460844002303A90390FF
:10088000684600F0A7FD09E0A0F500504A461F3871
:10089000002303A90390684600F0B1FD8DE807002E
:1008A0000004000C03D04FF0FF30410800E0104678
:1008B000B8F1000F03D00022009215461EE0751E0D
:1008C00005D400F091F9303262556D1EF9D5B3466A
:1008D0000122084302D000227F1C04E02078302847
:1008E00001D100227F1E002A099784D01DE0112D1E
:1008F00007DA00F079F9303262556D1C50EA0102D6
:10090000F5D1084302D00098C8B10EE00021681E5E
:1009100005E0235C625C63542254401E491C814202
:10092000F7DBAB46A81B401E0990002004F80B0023
:100930000B98099AC0F80880C0E9002B7AE71126C5
:100940004FF0000857E72DE9F04F88460446D21DC6
:1009500022F0070191B0D1E90001CDE90A0105F0CB
:1009600095F802460B98C00F01D02D2007E02068B3
:10097000810701D52B2002E0202101EAC000032AD3
:10098000099001D0072A05DB03464146204600F0C6
:1009900089F90BE12078800601D5E06900E00620A6
:1009A000B8F1650F814606D0B8F1660F18D0B8F1DE
:1009B000670F70D131E00020B9F1110F009001DB19
:1009C000112301E009F101030AAA01A90CA8FFF70C
:1009D000E2FEDDE90C70002609F10105834647E0DF
:1009E00001204B4600904FF000470AAA01A90CA82D
:1009F000FFF7D1FEDDE90DB00C995D46002610B978
:100A000009F101000D18B9EB050003D4C0F1FF3660
:100A100009F10105A5EB09002BE0B9F1010F01DA9D
:100A20004FF001090020B9F1110F0090484601DD97
:100A3000112300E003460AAA01A90CA8FFF7ABFEA8
:100A4000DDE90C704D4600268346207800070AD465
:100A5000AB4500DA5D4601A8012D04DD411911F80E
:100A6000011C302907D04F4502DA17F1040F04DAD0
:100A7000012082460FE06D1EEEE7002F02DCED1B29
:100A80003E4403E0781CA84200DD7D1CB81B00F149
:100A9000010A4FF000472078000703D4AA4501DB84
:100AA0004FF0FF3A0021B7F1004F0DF143088DF8E8
:100AB000431024D002202B23002F01DA7F422D2364
:100AC0000A21021EA0F1010000DC5FB197FBF1FCDE
:100AD00097FBF1F201FB1C7C17460CF1300C08F877
:100AE00001CDEEE7A8F1010003702188090501D5C9
:100AF000452100E06521A0F1010800F8011C0998DA
:100B00000FA9A1EB0807FF1D00B10120411901EB5E
:100B1000EA70A1693844081A401EA0612078C00616
:100B200002D42046FFF7BCFC099828B1D4E9012182
:100B30009047206A401C20622078C00622D52046BB
:100B4000FFF7AEFC1EE0002E04DBB34502DD01A87A
:100B5000805D00E03020D4E901219047206A401CEC
:100B60002062761CAAF101005FEA000A0AD100F0B7
:100B700033F8C0680168405CD4E901219047206ADD
:100B8000401C2062281EA5F10105DCDC07E0D4E949
:100B9000012118F8010B9047206A401C2062381E82
:100BA000A7F10107F3DC2046FFF790FC032011B00A
:100BB00041E60000074B70B50D467B4400F05FF83E
:100BC0000446284600F020F910B14FF0FF3070BD08
:100BD000204670BD6359000000487047201A002469
:100BE00000487047001A002430B5B0F10A024FEAFD
:100BF000900E71F100034EEA817EB0EB0E0061EBC6
:100C000091014FEA101E4EEA017E10EB0E0041EBFF
:100C100011114FEA102E4EEA016E10EB0E0041EB5F
:100C200011214FEA104E4EEA014E10EB0E0041EB3F
:100C30001141401841F100014FEAD00040EA4170F3
:100C40004FEAD10110EB80054FEA810444EA907429
:100C500044EB01046D1944EB0404521BA3414FF013
:100C6000000348BF0A3200D530BD401C41F10001ED
:100C700030BD000001694A1C02610878704700B568
:100C80008FB0CDE901310021059105497944CDE9C5
:100C9000031011466846FFF767FC0FB000BD000067
:100CA000E5FFFFFF2DE9F0411F46044603260168DA
:100CB000072A01F4006004DB08B116A505E016A5BB
:100CC00003E008B115A500E015A521F01000206093
:100CD000A069C01EA0610FB1401EA0612046FFF7B1
:100CE000DFFB4FB1D4E9012138469047206A401C10
:100CF0002062C01C206206E0206AFAE7D4E90121E4
:100D000015F8010B9047761EF8D22046FFF7DEFB60
:100D1000BDE8F0814E414E006E616E00494E4600C6
:100D2000696E66002DE9F047814616468AB035485F
:100D300078440DC88DE80D0032487844801C03AC1F
:100D40000DC884E80D0041F69B300844372190FB24
:100D5000F1F290FBF1F5A5F1800501FB12041B3CBB
:100D600002D56442012000E00020DFF898A0804610
:100D70000027FA44AAF1BE0A0EE0E0070AD0324684
:100D8000684607EB470101230AEB810100F037FBBE
:100D90008DE8070064107F1C002CEED1194F7F44B2
:100DA000AE3F19E0E80715D007EB04100DF1180A63
:100DB00090E80E008AE80E00C068F04201D1981950
:100DC00008903246012306A903A800F018FB03ABE4
:100DD00083E807006D10641C002DE3D14FF0010380
:100DE00032466946B8F1000F03A802D000F0F2FACB
:100DF00001E000F004FBC9E90001C9F808200AB0CD
:100E0000BDE8F087E85C0000007B00F080007047E0
:100E100000487047001A00247546FFF7F9FFAE46F8
:100E200005006946534620F00700854618B020B5F6
:100E3000FFF7A0FABDE820404FF000064FF0000792
:100E40004FF000084FF0000B21F00701AC46ACE872
:100E5000C009ACE8C009ACE8C009ACE8C0098D46DF
:100E6000704710B50446AFF300802046BDE810403F
:100E7000FFF76BBA4FF0013C50F8042B51F8043BDC
:100E80009A4215D1A2EB0C03934313EACC130BD176
:100E900050F8042B51F8043B9A4209D1A2EB0C0301
:100EA000934313EACC13E7D04FF00000704700BF24
:100EB000D01A01BAB1FA81F101F0180122FA01F059
:100EC000CB40C1F12001DBB2C0B2C01A2CFA01F351
:100ED000D11A914311EAC311E6D170475FEA400C81
:100EE00008BF91F0000F4FEA8C234FEAC12243EA7A
:100EF00051514FEA1C5018BF00F5F0404FEA300046
:100F000018BF41F000415FEA6C5C00F02980BCF141
:100F1000FF3F08BF40F080407047130C06BF12042B
:100F20004FF0100C4FF0000C130E04BF12020CF126
:100F3000080C130F04BF12010CF1040C930F04BF33
:100F400092000CF1020CD30F04BF52000CF1010C03
:100F500011464FF00002A0F11F00A0EB0C007047FB
:100F600011F0004F08BF704731F000413FF4D5AF9A
:100F70000B0C06BF09044FF0100C4FF0000C0B0EC9
:100F800004BF09020CF1080C0B0F04BF09010CF19E
:100F9000040C8B0F04BF89000CF1020CCB0F04BFB3
:100FA00049000CF1010CCCF12003A0EB0C0022FA5B
:100FB00003F302FA0CF241EA030100F10100704769
:100FC00020F07F4C80EA030023F07F47ACEB07035F
:100FD00003F57C5300F0004003F1FF032DE9804945
:100FE0004FEA154B09B44FEA144325EA0B4E24EAA5
:100FF00003480FF2042606EB132749083E785FEA00
:10100000320203FB0667C7F5000707FB06F64FEA47
:1010100054374FEAD64606F1020607FB066CCCF1C0
:10102000005C4FEA1C472CEA074C07FB06F40CFB5C
:1010300006F504EB15464FEA961634BF00204FF034
:1010400000404FEAD13706FB07FC4FEA1C4C0CFB73
:101050000BF7D21B03FB0CF761EB07010CFB0EF740
:10106000B0EB074072EB17420CFB08F734BFA2EB62
:101070000742B2EB074261EB17414FEA0C444FEADB
:10108000910706FB07FC4FEA1C4C0CFB0BF7B0EB7F
:10109000C74072EB573203FB0CF734BFA2EBC742D9
:1010A000B2EBC74261EB57310CFB0EF7B0EBC70058
:1010B00072EB57720CFB08F734BFA2EBC702B2EB1E
:1010C000C70261EB5771039F4FEA816141EA9211B8
:1010D00004EBCC044FEAD1374FEA826206FB07FCEF
:1010E00042EA90124FEA80604FEA1C4C0CFB0BF76F
:1010F000D21B03FB0CF761EB07010CFB0EF7B0EB07
:10110000074072EB17420CFB08F734BFA2EB074213
:10111000B2EB074261EB17414FEA8C554FEA91075A
:1011200004EB9C2406FB07FC4FEA1C4C0CFB0BF762
:10113000B0EBC74072EB573203FB0CF734BFA2EBA6
:10114000C742B2EBC74261EB57310CFB0EF7B0EB75
:10115000C70072EB57720CFB08F734BFA2EBC70253
:10116000B2EBC70261EB577115EB4C254FEA816179
:1011700041EA92114FEA82624FEAD13742EA901275
:1011800006FB07FC44F100044FEA80604FEA1C4C68
:101190000CFB0BF7D21B03FB0CF761EB07010CFBFD
:1011A0000EF7B0EB074072EB17420CFB08F734BFA9
:1011B000A2EB0742B2EB074261EB174115EB1C159E
:1011C0004FEA813141EA92414FEA823242EA90424B
:1011D0004FEA80304FEA0C7644F1000448EA0343BA
:1011E0004EEA0B484FF0000EB2EB080C71EB030710
:1011F00024BF624639464EEB0E0E4FF0000B00182E
:10120000524149414BEB0B0BB2EB080C71EB03075E
:101210007BF1000B24BF624639464EEB0E0E4FF0B9
:10122000000B0018524149414BEB0B0BB2EB080C81
:1012300071EB03077BF1000B24BF624639464EEB8E
:101240000E0E51EA020718BF46F0010616EB0E76A5
:1012500055F1000254F1000103D5BDE88901BDE854
:101260000088BDE88901BDE80048B619524141EB4C
:101270000101A3F10103704780807F7E7D7C7B7A32
:101280007978777676757473727171706F6E6E6D32
:101290006C6C6B6A6A6968686766666564646363D8
:1012A00062616160605F5F5E5E5D5D5C5C5B5B5A5E
:1012B0005A595958585757565655555554545353CB
:1012C00052525251515050504F4F4F4E4E4D4D4D26
:1012D0004C4C4C4B4B4B4A4A4A4949494848484771
:1012E00047474746464645454544444444434343AF
:1012F0004342424242414141002B9C4630D4770058
:101300002BD01CB54FEA370703B44FF010004FF055
:101310001001BAF1000F06D0BCF1000FDCBF40F0A5
:10132000080040F008014FF000000FBCBDE810407D
:101330000BF1010BBBF1010F08BF5FEA170722BFDA
:1013400012F1010211F101014FF0004143F10003DC
:1013500000F0004043EA00007047F9D35708D0E797
:1013600046EA064613F1400F4FEA16461FDD13F119
:10137000200FDFBF16430A46002120335B42BED058
:10138000C3F1200746EA064602FA07F74FEA164677
:1013900046EA0706C3F1200722FA03F201FA07F72B
:1013A00021FA03F14FF0000342EA0702A7E746EAF9
:1013B000020646EA06464FEA164646EA0106BCBF62
:1013C00046EA0646360C4FF000034FF000024FF09D
:1013D000000194E72DE9804C9A46934670B491E859
:1013E000380007C831EA400C48BF34EA430C03D543
:1013F000FFF7E6FDFFF780FFF0BCBDE8008C2DE9AC
:10140000804C9A46934670B491E8380007C810F0B3
:10141000804F08BF13F0804F03D100F005F8FFF7AD
:101420006BFFF0BCBDE8008C20F07F4780EA030032
:1014300023F07F4C07EB0C03A3F57C5300F0004036
:10144000A3F1FE0392F0000F00F0B38095F0000FBF
:1014500000F077802DE901494FEA11404FEA144628
:1014600021EA004800FB06FC24EA064708FB06F6D2
:1014700007FB08F800FB07F718EB06484CEB164C87
:101480004FEA124B18EB07484FEA15464CEB174052
:1014900022EA0B4E0BFB06FC25EA06470EFB06F67E
:1014A00007FB0EFE0BFB07F71EEB064E4CEB164C34
:1014B0004FF000061EEB074E4CEB174B18EB0B08DA
:1014C00040F1000018EB0E0B58EB000840F1000053
:1014D0008F1A4FF000013CBFC943661B14BFB5EB28
:1014E000040C00213CBFC943F61B4FEA17444EEAE7
:1014F0008E0E27EA04454FEA1C4704FB07622CEADC
:10150000074C05FB07F70CFB05F604FB0CFC16EB80
:10151000074642EB174216EB0C4642EB1C421BEB14
:10152000060658EB0202414146EA9E0601D5BDE897
:101530000189B619524141EB0101A3F10103BDE854
:1015400001894FEA14454FEA114724EA054621EA8A
:10155000074C05FB07F406FB07F70CFB06F105FB40
:101560000CFC11EB074144EB17444FEA124711EB17
:101570000C4144EB1C4422EA074C05FB07F206FB36
:1015800007F70CFB06F605FB0CFC16EB074642EBD7
:10159000174216EB0C4642EB1C456A1854F1000149
:1015A00048BF7047B619524141EB0101A3F1010355
:1015B000704795F0000F37D04FEA11424FEA1447B9
:1015C00021EA024624EA074C02FB07F106FB07F773
:1015D0000CFB06F402FB0CFC14EB074441EB174137
:1015E0004FEA154714EB0C4441EB1C4125EA074C2C
:1015F00002FB07F506FB07F70CFB06F602FB0CFCEB
:1016000016EB074645EB174516EB0C4645EB1C421F
:10161000121951F1000148BF7047B619524141EB10
:101620000101A3F1010370474FEA14454FEA114746
:1016300024EA054621EA074C05FB07F106FB07F7FC
:101640000CFB06F24FF0000605FB0CFC12EB074208
:1016500041EB174112EB0C4251EB1C4148BF704764
:10166000921841EB0101A3F101037047FEE77047B7
:10167000704700002DE9FC4F01257E4C00234FF000
:10168000030A4FF0B04E4FF00F0BEBE005FA03F6F4
:1016900037403A0077D04F68012F05D0022F03D092
:1016A000112F01D0122F1AD187684FEA4308D1F8C1
:1016B0000CC00AFA08F927EA09070CFA08FC4CEAF8
:1016C000070CC0F808C0476891F804C0B743CCF3D2
:1016D000001C0CFA03FC4CEA070CC0F804C0C668F6
:1016E0004FEA430CD1F80880E1460AFA0CF7BE43F2
:1016F000019708FA09F848EA0608C0F80C804E6815
:10170000022E01D0122E12D1DE084FEA437C00EBEC
:10171000860600960F69366A4FEADC6C0BFA0CF805
:1017200007FA0CF726EA08063743009E37620E795F
:101730000768DDF804C006F0030606FA09F627EA92
:101740000C073E4306604E68F6001CD54A4E3768CB
:1017500047F00207376036689F0706F002060096DA
:1017600023F0030606F1B046B1463F0FD6F80864F1
:10177000DFF808810BFA07FC404526EA0C0603D186
:101780004FF0000C41E06CE0DFF8F4C0604502D19E
:101790004FF0010C39E0DFF8ECC0604502D14FF0AA
:1017A000020C32E0DFF8E0C0604502D14FF0030CDC
:1017B0002BE0DFF8D8C0604502D14FF0040C24E0E4
:1017C000DFF8CCC0604502D14FF0050C1DE0DFF81A
:1017D000C4C0604502D14FF0060C16E0DFF8B8C077
:1017E000604502D14FF0070C0FE0DFF8B0C0604554
:1017F00002D14FF0080C08E0DFF8A4C0604502D128
:101800004FF0090C01E04FF00A0C0CFA07FC4CEA0F
:10181000060CC9F808C426684F6826EA0206FF03CA
:1018200000D51643266066684F6826EA0206BF03A5
:1018300000D516436660D1F804C07646DEF8007025
:101840005FEACC2C27EA020700D517433760D1F8AE
:1018500004C077685FEA8C2C27EA020700D517439B
:1018600077605B1C0A681746DA407FF40FAFBDE86B
:10187000FC8F000080000058F44402580000025819
:101880000004025800080258000C025800100258C8
:101890000014025800180258001C02580020025878
:1018A0000024025801480068000C70470010005CDA
:1018B00001488068704700001000002430B590F89F
:1018C0004120202A24D190F84020012A20D0012351
:1018D00080F84030242280F8412020230024026830
:1018E000156825F0010515600268156825F4805516
:1018F0001560026815680D43156001680A6842F0BA
:1019000001020A6080F8413080F84040002030BD7C
:10191000022030BD30B590F84120202A22D190F825
:101920004020012A1ED0012380F84030242280F874
:101930004120202400250268136823F0010313606E
:101940000268136823F4706343EA0121116001689F
:101950000A6842F001020A6080F8414080F8405075
:10196000002030BD022030BD074908B50A6842F0AA
:1019700002020A60096801F00201009103490A6845
:1019800002430A6008BD0000F444025804040058F1
:1019900070B5040004D094F84100002510B106E0B1
:1019A000012070BD204684F8405000F0ABF924209F
:1019B00084F841002068016821F001010160D4E948
:1019C000001020F0706008612068816821F40041F7
:1019D0008160E06821680128A06806D040F40440D6
:1019E0008860E068022803D006E040F40040F7E792
:1019F00021684FF40060486020212068114A436844
:101A0000134343602068C26822F40042C26054F865
:101A1000106B0DCC104340EA0320F06054F81C3CDE
:101A2000D4E900021043186054F81C0D026842F01B
:101A300001020260656484F84110256384F8425015
:101A4000002070BD008000022DE9FF4F83B00446E6
:101A500090F841009A469346DDE91087DDF84890FA
:101A6000202874D15FEA080014D09FB194F8400098
:101A700001286CD0012084F84000FFF719FF0122F3
:101A8000064619230090D103204601F08DFE002860
:101A900071D103E04FF4007060646CE00025C4F87D
:101AA0002480222184F84110402084F8420065649B
:101AB0006785534665635A4604992046CDE90096EA
:101AC00001F0F8FD10B184F8405054E0618DFF271B
:101AD00034484FF08078FF294FF0007A04D92785E9
:101AE0003A464346009005E0618D534621850090BB
:101AF00094F828202046049901F040FE00224B462D
:101B000004212046009601F04FFEA0BB2068616AC8
:101B1000406A0870606A401C6062208D401E81B27D
:101B20002185608D401E6085608DD8B1D1B90022BD
:101B30004B4680212046009601F036FED8B9608DD4
:101B4000FF2805D927853A464346009506E026E05A
:101B5000608D53462085009594F8282020460499EE
:101B600001F00CFE608D0028C8D13246494620465F
:101B700001F047FE18B1012007B0BDE8F08F2168E1
:101B80002020094AC86121684B6813404B6084F8E3
:101B9000410084F84250002084F84050ECE70220D5
:101BA000EAE700000024008000E800FE2DE9FF4F76
:101BB00083B0044690F841009A469346DDE91087C9
:101BC000DDF84890202871D15FEA080014D09FB159
:101BD00094F84000012869D0012084F84000FFF704
:101BE00067FE0122064619230090D103204601F02A
:101BF000DBFD00286ED103E04FF40070606469E003
:101C00000025C4F82480212184F84110402084F864
:101C1000420065646785534665635A4604992046C9
:101C2000CDE9009601F078FD10B184F8405051E004
:101C3000608DFF274FF08078FF284FF0007A04D99D
:101C400027853A464346009505E0608D534620853A
:101C5000009594F828202046049901F08FFD324623
:101C60004946204601F0F4FDA0BB606A2168007877
:101C70008862606A401C6062608D401E6085208DB5
:101C8000401E80B22085618DD9B1D0B900224B466B
:101C900080212046009601F087FDD8B9608DFF288D
:101CA00005D927853A464346009506E026E0608D33
:101CB00053462085009594F828202046049901F089
:101CC0005DFD608D0028CAD132464946204601F0AC
:101CD00098FD18B1012007B0BDE8F08F20682021E1
:101CE000074AC161206843681340436084F841108B
:101CF00084F84250002084F84050ECE70220EAE7E4
:101D000000E800FE10B586B0044614216846FEF7D0
:101D1000B2FC1249206888421ED11148016841F086
:101D20000801016000681221012200F008000590FE
:101D3000032304244FF440508DE81F0009486946EE
:101D4000FFF798FC06481430016841F080010160FB
:101D5000006800F08000059006B010BD001C00581F
:101D6000E0440258000C025802488168027811448D
:101D70008160704710000024032010B500F078F84F
:101D800000F0DAFF0F4A104914681368C4F3032205
:101D900003F00F038A5CC95C02F01F0201F01F010F
:101DA000D0400A4A20FA01F1116009490860002078
:101DB00000F010F808B1012010BD00F02BF8002051
:101DC00010BD000018440258FA68000820000024E2
:101DD0001C00002470B50D4D04462878A0B14FF4C6
:101DE0007A71B1FBF0F00A490968B1FBF0F001F03B
:101DF000C3FA48B9102C07D200222146501E00F029
:101E000017F800206C6070BD012070BD1000002428
:101E10001C000024054808B5016841F0020101607A
:101E2000006800F00200009008BD0000F444025871
:101E30000E4BF0B41B680D46C3F30223C3F1070633
:101E4000042E00D90426191D072901D2002300E021
:101E5000DB1E012404FA06F19C40491E2940641E41
:101E6000994014402143F0BC03F028BE0CED00E083
:101E7000064900F0070210B54FF6FF040868044B4E
:101E8000204040EA02201843086010BD0CED00E03D
:101E90000000FA05134970B50A68D243520705D508
:101EA000096801F00701814213D118E00A6822F0A5
:101EB000070202430A60FFF7FBFC0A4D4FF47A76F3
:101EC0000446083D07E000BFFFF7F2FC001BB042EC
:101ED00001D9012070BD2868C0438004F4D40020DB
:101EE00070BD00000C48025810B500F0DFFE054937
:101EF0000968054AC1F30211515C01F01F01C84095
:101F000010BD000020440258FA680008494930B565
:101F1000484C0B1D0A68143409681D68246802F0D7
:101F20000303C5F30012C1F30531C4F3CC04002947
:101F300014FB02F200EE102AF8EE400A75D03F4A78
:101F40009FED3D1AB7EE000A6BB1DFED3D1A012B94
:101F500001D0022B64D002EE101A1168F8EE422A6A
:101F600081EEA22A21E0334C283C23689B0612D53F
:101F7000344B246801EE901A1168C4F3C104F8EEE2
:101F8000612AE34001EE903AC1F30801F8EE611ACC
:101F900081EEA22A0BE001EE901ADFED2B2A00BFA2
:101FA000F8EE611A116882EEA12AC1F3080101EE70
:101FB000901A1168F8EE611A40EE811A71EE800AEB
:101FC00062EE200AC1F3462101EE101AB8EE411A62
:101FD00031EE001AC0EE811ABCEEE11A80ED001A53
:101FE0001168C1F3064101EE101AB8EE411A31EE44
:101FF000001AC0EE811ABCEEE11A80ED011A1168D8
:10200000C1F3066101EE101AB8EE411A31EE000A72
:1020100080EE801ABCEEC10A80ED020A30BD04E0F9
:1020200001EE901ADFED092ABAE700210160416054
:102030008160F3E728440258000000393844025810
:102040000024744A0090D0030024744C0024F44A05
:10205000494930B5484C0B1D0A681C3409681D6895
:10206000246802F00303C5F30022C1F30551C4F351
:10207000CC04002914FB02F200EE102AF8EE400A0C
:1020800075D03F4A9FED3D1AB7EE000A6BB1DFED08
:102090003D1A012B01D0022B64D002EE101A1168F8
:1020A000F8EE422A81EEA22A21E0334C283C236834
:1020B0009B0612D5344B246801EE901A1168C4F3C4
:1020C000C104F8EE612AE34001EE903AC1F3080141
:1020D000F8EE611A81EEA22A0BE001EE901ADFED14
:1020E0002B2A00BFF8EE611A116882EEA12AC1F313
:1020F000080101EE901A1168F8EE611A40EE811A9B
:1021000071EE800A62EE200AC1F3462101EE101A38
:10211000B8EE411A31EE001AC0EE811ABCEEE11A97
:1021200080ED001A1168C1F3064101EE101AB8EEF5
:10213000411A31EE001AC0EE811ABCEEE11A80EDB0
:10214000011A1168C1F3066101EE101AB8EE411AC6
:1021500031EE000A80EE801ABCEEC10A80ED020A60
:1021600030BD04E001EE901ADFED092ABAE7002144
:10217000016041608160F3E72844025800000039A3
:10218000404402580024744A0090D0030024744C48
:102190000024F44A2DE9FC5F044650F8241B002576
:1021A00000902E460801FE4FDFF8F8831DD5606EC3
:1021B00050B1B0F5801F0CD0B0F5001F0ED0B0F5B7
:1021C000401F1DD001250FE0386840F40030386012
:1021D00016E00221201D02F0DBF803E00098022146
:1021E00002F066F905000BD02E462088C00523D5E5
:1021F000606D05281ED2DFE800F00C11161B1B00D5
:10220000626ED8F8001021F440111143C8F8001094
:10221000EBE7386840F40030386009E00021201D09
:1022200002F0B6F803E00098002102F041F90546FB
:102230006DB100E001252E462088800528D5A06DCF
:1022400080281ED00CDC90B140280ED114E0626DC5
:10225000D8F8001021F007011143C8F80010EBE78F
:10226000C02813D0B0F5807F10D001250FE038686A
:1022700040F40030386009E00021201D02F088F8A9
:1022800003E00098002102F013F9054695B12E46AF
:102290002088DFF81093400509F108092CD5D4F8FF
:1022A000A400B0F5800F20D00DDCA0B1B0F5001F68
:1022B0000FD115E0A26DD8F8001021F4E0711143A0
:1022C000C8F80010E4E7B0F5C00F13D0B0F5000F68
:1022D00010D001250FE0386840F40030386009E084
:1022E0000021201D02F054F803E00098002102F0C4
:1022F000DFF8054675B12E46208800052DD5D4F8A7
:10230000A800B0F1007F21D00EDCA8B1B0F1807F31
:1023100010D116E0D4F8A420D9F8001021F46001FF
:102320001143C9F80010E7E7B0F1407F13D0B0F1D6
:10233000806F10D001250FE0386840F4003038601D
:1023400009E00021201D02F023F803E0009800219D
:1023500002F0AEF805466DB12E46206880011FD50B
:10236000A06CD8B110280FD0202812D0302815D05A
:10237000012514E0D4F8A820D9F8001021F0E0617C
:102380001143C9F80010E8E7386840F400303860BD
:1023900004E00221201D01F0FBFF05466DB12E4631
:1023A0002088C0042BD5E06DB0F5005F20D00DDC97
:1023B000A0B1B0F5805F0FD115E07A48A26C001F84
:1023C000016821F0300111430160E9E7B0F5405F99
:1023D00013D0B0F5804F10D001250FE0386840F4DD
:1023E0000030386009E00021201D01F0D1FF03E03A
:1023F0000098002102F05CF8054685B12E46208841
:10240000800429D5206EB0F5403F23D010DC08B3FE
:10241000B0F5803F14D0B0F5003F0FD115E0E26D6C
:10242000D8F8001021F4E0411143C8F80010E6E7A5
:10243000B0F5802F0ED0B0F5A02F0BD001250AE00B
:102440000121201D01F0A4FF03E00098012102F00A
:102450002FF805468DB12E46208840042AD5D4F8A1
:10246000AC00B0F1405F23D010DC08B3B0F1805F66
:1024700014D0B0F1005F0FD115E0226ED8F8001033
:1024800021F4E0211143C8F80010E5E7B0F1804FD6
:102490000ED0B0F1A04F0BD001250AE00121201D84
:1024A00001F076FF03E00098012102F001F80546F3
:1024B0006DB12E46208800041FD5E06ED8B1B0F172
:1024C000805F0ED0B0F1005F10D0012514E0D4F889
:1024D000AC20D9F8001021F0E0411143C9F80010F8
:1024E000E8E7386840F40030386004E00121201D3E
:1024F00001F04EFF05466DB12E462068C0011ED585
:10250000606CD0B101280ED0022811D0032814D05D
:10251000012513E0E26ED8F8001021F0405111437C
:10252000C8F80010E9E7386840F40030386004E08B
:102530000221201D01F02CFF054685B12E462068A2
:10254000DFF85CB04002ABF11C0B57D516480168B0
:1025500041F480710160FFF7ABF982460EE011484B
:10256000626C001F016821F0030111430160E6E77E
:10257000FFF79EF9A0EB0A0064283DD80A480068DE
:10258000C005F5D57DBBDFF81CA0B4F8B0100AF18A
:10259000200ADAF8000001F4407100F4407005E010
:1025A0002C4402585044025800480258884211D026
:1025B000DAF80010DAF8002021F4407142F4803299
:1025C000CAF80020DAF8002022F48032CAF800208D
:1025D000CAF80010D4F8B000B0F5807F21D1FFF721
:1025E00067F9019019E008E0FFF762F90199411AD3
:1025F00041F28830814210D903252E462078DFF839
:1026000030A4C0073DD0A06F182838D026DC80B396
:10261000082829D0102825D12CE0DAF800008007FE
:10262000E2D5D4F8B010C1F30120032858460DD0EC
:10263000016821F47C510160B4F8B020DAF8001090
:10264000C2F30B021143CAF80010D7E7F94A036836
:1026500002EA111223F47C511143ECE720280ED03A
:1026600028280CD001250BE00121201D01F090FE4F
:1026700004E004E00098012101F01AFF05465DB175
:102680002E46207880071ED5606F062819D2DFE815
:1026900000F0160C11161616A26FDAF8001021F0D1
:1026A00038011143CAF80010EBE70121201D01F0A9
:1026B0006FFE03E00098012101F0FAFE054675B1B6
:1026C00000E001252E46207840071FD5D4F8900061
:1026D000062819D2DFE800F0160C11161616626FE4
:1026E000DAF8001021F007011143CAF80010EAE7F8
:1026F0000121201D01F04CFE03E00098012101F0B2
:10270000D7FE05469DB100E001252E4620788006C3
:102710002BD5D4F88C00B0F1405F24D011DC10B37D
:10272000B0F1805F15D0B0F1005F10D116E0D4F8A1
:102730009020D9F8001021F007011143C9F80010CA
:10274000E4E7B0F1804F0ED0B0F1A04F0BD00125DF
:102750000AE00021201D01F01BFE03E00098022189
:1027600001F0A6FE05468DB12E46207840062BD5F9
:10277000D4F89800B0F5406F24D011DC10B3B0F558
:10278000806F15D0B0F5006F10D116E0D4F88C2012
:10279000DAF8001021F0E0411143CAF80010E4E734
:1027A000B0F5805F0ED0B0F5A05F0BD001250AE038
:1027B0000021201D01F0ECFD03E00098022101F052
:1027C00077FE05468DB12E46207800062BD5D4F82D
:1027D0009C00B0F5C04F24D011DC10B3B0F5005F01
:1027E00015D0B0F5804F10D116E0D4F89820D9F864
:1027F000001021F4E0511143C9F80010E4E7B0F5EE
:10280000004F0ED0B0F5204F0BD001250AE000217B
:10281000201D01F0BDFD03E00098022101F048FEFB
:1028200005464DB12E46207800071ED5D4F880000D
:10283000B0F5805F0AD00FE0D4F89C20D9F80010E2
:1028400021F460411143C9F80010ECE7009802211F
:1028500001F02EFE00B10126D4F88020DAF8001035
:1028600021F440511143CAF800102078C00613D556
:10287000D4F89400B0F5807F05D10098022101F0D2
:1028800017FE00B10126D4F89420D9F8001021F4E5
:1028900040711143C9F800102068000316D5D4F820
:1028A000A00038B1B0F5803F09D0B0F5003F0BD0A3
:1028B00001250AE00021201D01F06AFD03E00098D7
:1028C000022101F0F5FD054685B12E462068400342
:1028D00022D5D4F88400B0F5801F11D0B0F5001FC8
:1028E00013D0B0F5401F15D0012514E0D4F8A02076
:1028F000D9F8001021F440311143C9F80010E5E780
:10290000386840F40030386004E00098012101F09C
:10291000CFFD054655B12E462068C0031CD5E06C9E
:1029200070B1B0F5803F10D0012514E0D4F88420B8
:10293000DAF8001021F440111143CAF80010EBE757
:10294000386840F40030386004E00221201D01F0B6
:102950001FFD0546CDB12E462068800005D50098A4
:10296000022101F0A5FD00B10126206880031BD5DE
:10297000E06FB8B1B0F5807F10D0B0F5007F11D016
:10298000B0F5407F0ED001250DE02948E26C0838F3
:10299000016821F4803111430160DDE7386840F4BB
:1029A00000303860F5B32E462068C00207D5226F8C
:1029B000D8F8001021F000411143C8F80010206839
:1029C000C00008D5D4F8B420DBF8001021F4804111
:1029D0001143CBF800102068800207D5A26ED8F80A
:1029E000001021F080711143C8F8001020684000E9
:1029F0000CD5DBF8001021F40041CBF80010DBF817
:102A00000010D4F8B8201143CBF80010206800283B
:102A100007DA0748226D0838016821F04051114358
:102A2000016000E008E086B10120BDE8FC9F0000E5
:102A300054440258CFFFFF00E26FDAF8001021F48F
:102A400040711143CAF80010AEE70020EDE7000026
:102A50002DE9F05F04000F467ED0DFF83882D8F809
:102A6000000000F00F00B8420CD2D8F8001021F09E
:102A70000F013943C8F80010D8F8000000F00F002B
:102A8000B84269D12078844D40070AD52069296869
:102A900001F07001884204D9296821F070010143D6
:102AA000296020787C4E361D00070AD560693168A0
:102AB00001F07001884204D9316821F070010143AE
:102AC00031602078C0060AD5A069316801F4E06160
:102AD000884204D9316821F4E061014331602078F3
:102AE000DFF8B4B180060BF1080B0CD5E16958464C
:102AF000DBF8002002F07002914204D9026822F053
:102B000070020A430260207880070AD5E0682968CD
:102B100001F00F01884204D9296821F00F01014317
:102B200029602078C0073ED05B49A2682868183920
:102B300020F47060104328606068022818D00328D1
:102B400019D00968012819D0490700294ADADFF8A5
:102B500048A1AAF1080A00E044E0DAF8002022F0D7
:102B600007020243CAF80020FEF7A2FE814612E0E7
:102B700009688903E9E709688901E6E7C905E4E727
:102B8000FEF796FEA0EB090141F28830814202D99E
:102B90000320BDE8F09F6168DAF8000000F038001B
:102BA000B0EBC10FECD1207880070AD5E068296826
:102BB00001F00F01884204D2296821F00F0101437E
:102BC0002960D8F80010404601F00F01B9420BD936
:102BD000016821F00F0139430160006800F00F0027
:102BE000B84201D00120D4E7207840070AD52069F7
:102BF000296801F07001884204D2296821F070012F
:102C000001432960207800070AD56069316801F026
:102C10007001884204D2316821F0700101433160B3
:102C20002078C0060AD5A069316801F4E0618842C5
:102C300004D2316821F4E0610143316020788006DC
:102C40000CD5E1695846DBF8002002F07002914291
:102C500004D2026822F070020A43026000F06CF8AD
:102C60000E492A682B68C2F3032203F00F038A5C23
:102C7000C95C02F01F0201F01F01D040084A20FA8F
:102C800001F111600749086007480068BDE8F05F7E
:102C9000FFF7A0B80020005218440258FA68000854
:102CA000200000241C0000241400002430B500F093
:102CB00043F80B4A0B490C4B15681468C5F3032203
:102CC00004F00F048A5C095D02F01F0201F01F018D
:102CD000D040064A20FA01F119601060084630BD64
:102CE00018440258FA680008200000241C00002440
:102CF00000B5FFF7DBFF05490968054AC1F302117A
:102D0000515C01F01F01C84000BD00001C44025886
:102D1000FA68000800B5FFF7C9FF05490968054AC8
:102D2000C1F30221515C01F01F01C84000BD000049
:102D30001C440258FA680008454970B545480968BE
:102D4000434B103B11F0380208D00111082A03D080
:102D5000102A0BD0182A0BD0084670BD19688906B6
:102D6000FBD51968C1F3C101C84070BD3A4870BDB8
:102D70003749374D18310C1D24350A680968266813
:102D80002D6802F0030406F00102C1F30511C5F33A
:102D9000CC0515FB02F200EE102AB8EE400AE9B3AA
:102DA0002F4ADFED2E0AB7EE001A6CB1DFED2D1AB7
:102DB000012C01D0022C43D002EE101A1068F8EE5C
:102DC000422A81EEA22A1EE01C68A40611D51B68C7
:102DD00001EE901A1168C3F3C103F8EE612AD840DE
:102DE00001EE900AC1F30800F8EE611A81EEA22A02
:102DF0000BE001EE901ADFED1C2A00BFF8EE611A1D
:102E0000106882EEA12AC0F3080001EE900AF8EEE5
:102E1000611A40EE201A31EE810A00E015E022EE40
:102E2000000A1068C0F34620401C00EE900AF8EE3D
:102E3000600A80EE201ABCEEC10A10EE100A70BDC6
:102E400001EE901ADFED092AD8E7002070BD0000DE
:102E5000104402580090D00300127A00000000399C
:102E6000304402580024744A0024744C0024F44A6C
:102E70002DE9F05F04007CD0FF4F2078FE4D18371D
:102E8000DFF8F493103DC00748D0D9F80000396846
:102E900000F03800102815D0182803D101F00300E5
:102EA00002280FD06068B0F5803F12D010B1B0F5A5
:102EB000A02F18D0286820F480302860286820F4DB
:102EC000802009E02868800328D560680028D2D0D7
:102ED00024E0286840F480302860606888B1FEF7FC
:102EE000E7FC064609E0286840F480202860F0E707
:102EF000FEF7DEFC801B64287ED828688003F7D5A7
:102F00000CE0FEF7D5FC064605E000BFFEF7D0FC5E
:102F1000801B6428F0D828688003F7D4207841F219
:102F20000308D54E0C3E800753D5D9F80000396808
:102F300010F038000ED0182801D188070AD0E068B8
:102F4000A8B3296821F0190101432960FEF7B0FCFC
:102F500082461BE02868400702D5E06800288AD036
:102F6000FEF7A0FC40451BD82069402812D03168EC
:102F700000E0CCE021F47C3141EA0030306028E010
:102F8000FEF796FCA0EB0A000228B5D82868400797
:102F9000F6D5E5E7306820F47C3040F40030EDE70A
:102FA000207C316821F0FE4141EA0060E6E7FFE75E
:102FB000286820F001002860FEF77AFC824605E0D0
:102FC000FEF776FCA0EB0A00022895D82868400797
:102FD000F6D42078C0065FD5D9F80000DFF898B2A3
:102FE000396800F03800ABF1040B082812D018281B
:102FF00005D101F0030000E0EAE001280AD0E06911
:103000000028286838D040F080002860FEF750FC87
:10301000824623E02868C00523D5E069802876D160
:103020001FE0206A202821D0316821F0F84141EAD0
:103030008060306030E000BF94F82010DBF80020A2
:1030400022F07C5242EA0161CBF8001024E000BF7C
:10305000FEF72EFCA0EB0A00022896D82868C005CF
:10306000F6D5FEF71FFC4045E6D8DAE7306820F0D9
:10307000F84040F08040DCE720F080002860FEF758
:1030800017FC064605E000BFFEF712FC801B022875
:103090009BD82868C005F7D42078000729D5764842
:1030A0006169643000298046016811D041F0010156
:1030B0000160FEF7FDFB064605E000BFFEF7F8FBEA
:1030C000801B0228C9D8D8F800008007F6D510E088
:1030D00021F001010160FEF7EBFB064605E000BFB1
:1030E000FEF7E6FB801B022872D8D8F800008007A4
:1030F000F6D42078800623D5A0690028286810D04F
:1031000040F480502860FEF7D3FB064605E02CE132
:10311000FEF7CEFB801B02285AD828688004F7D51A
:103120000EE020F480502860FEF7C2FB064604E063
:10313000FEF7BEFB801B02284AD828688004F7D41B
:10314000207840074FD5DFF83481D8F8001041F4DB
:103150008071C8F80010FEF7ABFB064605E000BF23
:10316000FEF7A6FB801B642832D8D8F80000C00503
:10317000F6D5414EA068603601280AD008B105286E
:1031800013D0306820F001003060306820F0040077
:1031900002E0306840F001003060A06841F2883AF7
:1031A00090B1FEF785FB80460AE0306840F00400ED
:1031B0003060EEE7FEF77CFBA0EB0801514507D835
:1031C00030688007F6D50EE0FEF772FB804607E018
:1031D00084E000BFFEF76CFBA0EB080151457DD8F1
:1031E00030688007F6D4606AF0B3DFF88C80D9F8D5
:1031F000001008F12008C1F3C20103296FD0022892
:10320000286820F08070286003D0FEF751FB044648
:1032100080E0FEF74DFB064605E000BFFEF748FBE9
:10322000801B022873D828688001F7D4E26A40F234
:10323000F331386854F8283F884340EA02101843B5
:103240003860217B4FF4FE0C22894FF0FE47208A24
:103250004902267D521E401EA1F5007189B20CEA7A
:103260000040C2F3080200E081E01143761E0143F2
:10327000014807EA066203E0104402580048025879
:103280001C3011433B4AC8F80010016821F00101CD
:10329000016011684FF6F876236AB14341EAC30131
:1032A00011600168A26921F00C01114301600168FD
:1032B000E26921F0020111430160016841F48031AB
:1032C0000160016841F400310160016841F480212E
:1032D0000160016841F00101016001E017E01DE0BB
:1032E000286840F080702860FEF7E2FA044604E0A7
:1032F000FEF7DEFA001B022809D828688001F7D5FE
:1033000035E000BFFEF7D4FA001B022802D90320E3
:10331000BDE8F09F28688001F4D428E039680128CE
:10332000D8F8000021D0A26A01F0030393421CD117
:10333000E26AC1F305118A4217D1216BC0F308027A
:10334000491E8A4211D1616BC0F34622491E914247
:103350000BD1A16BC0F30642491E914205D1E16B2E
:10336000C0F30660491E814201D00120D0E7002051
:10337000CEE7000034440258401EB0F1807F10B503
:1033800001D3012010BD4FF0E02460610F216017D0
:1033900002F094FB0020A0610721216110BD30B52F
:1033A00090F87C10012918D0012280F87C2024217B
:1033B000C0F880100022202450F8601B0B680D68B4
:1033C00023F0005325F001050D60426050F8601CA9
:1033D0000B6004620277104630BD022030BD70B52C
:1033E000044690F87C0001281DD0012284F87C203E
:1033F0002420C4F8800020680568026822F00102D9
:1034000002602068826822F060620A43826020467F
:1034100001F0AAF92268202100201560C4F880106C
:1034200084F87C0070BD022070BD70B5044690F831
:103430007C0001281DD0012284F87C202420C4F8BF
:10344000800020680568026822F00102026020689E
:10345000826822F060420A438260204601F084F9CB
:103460002268202100201560C4F8801084F87C00B8
:1034700070BD022070BD10B5040003D0D4F88000E8
:1034800010B107E0012010BD002084F87C00204628
:1034900000F026F82420C4F880002068016821F09C
:1034A00001010160204601F025FA0128EBD0A06A55
:1034B00010B1204601F08AF92068416821F490415A
:1034C00041602068816821F02A01816020680168DC
:1034D00041F0010101602046BDE8104001F0DAB979
:1034E00010B586B0044614216846FDF7C4F81349A8
:1034F0002068884220D11248016841F01001016023
:10350000006800F0100005900D481038016841F087
:103510000101016000680723022200F0010005900C
:1035200000204FF4C06100916946CDE90120CDE94A
:1035300003030448FEF79EF806B010BD00100140DA
:10354000F0440258000002582DE9F8430446D0F830
:1035500080001F4616460D46202852D1DDB1D6B157
:1035600094F87C0001284CD0012084F87C002122B2
:103570004FF00008C4F88880C4F880201834FEF7A3
:1035800097F9814654F8100CA687E687183CB0F5E9
:10359000805F03D004E00120BDE8F883206920B1FA
:1035A0002E46002584F87C8010E00026FAE7802172
:1035B000204601F077FBB8B9C6B116F8010B2168B7
:1035C0008862B4F85600401EA4F85600B4F85600BD
:1035D0004B464FF0000200970028E8D14FF0400121
:1035E000204601F05FFB38B10320D5E735F8020B28
:1035F0002168C0F30800E3E72020C4F88000002021
:10360000CAE70220C8E7FEE701688A69D243920749
:1036100001D400228A6200688169C943C90703D0C6
:10362000816941F001018161704700002DE9F0419D
:103630000446006890460E468069C043C00635D4F3
:103640000025202720688069C043800616D5701C9D
:10365000F8D0FEF72DF9A0EB0800B04201D8002EFB
:10366000F0D1606C84F8405040F02000606484F831
:10367000417084F842500120BDE8F081216810209B
:10368000C8612068C7612046FFF7BEFF206808496F
:1036900042680A404260606C40F00400606484F854
:1036A000417084F8425084F84050E4E70020E3E79A
:1036B00000E800FE2DE9F843174604461548DAB243
:1036C000DDE908981E4600900023204600F056F8D9
:1036D00042464946204600F0BBF8B8B9012EFDB27B
:1036E00008D02068390A816242464946204600F0E7
:1036F000AFF858B920688562002240214B46204629
:10370000CDF8008000F050F8002800D00120BDE87E
:10371000F8830000002000802DE9F8430446164895
:1037200017461E46DAB20090C3022046DDE908982B
:1037300000F024F842464946204600F089F8B8B91E
:10374000012EFDB208D02068390A816242464946FE
:10375000204600F07DF858B920688562002280215B
:103760004B462046CDF8008000F01EF8002800D01F
:103770000120BDE8F88300000020008070B50068DB
:10378000C1F30901074E41EA0241049C4FF48065F0
:103790004268194305EA54553543AA4321430A4375
:1037A000426070BDFF63FF032DE9F0411D461746DF
:1037B0000E460446DDF8188008E0681C06D0FEF7C7
:1037C00077F8A0EB0800A8420BD855B120688069B3
:1037D00036EA000013D00020B842EED00020BDE849
:1037E000F081626C002084F84000202142F0200229
:1037F000626484F8411084F842000120EFE7012060
:10380000EAE770B516460D4604460DE032462946F5
:103810002046FFF70BFF08B1012070BDFEF748F806
:10382000801BA84207D835B120688069C043800654
:10383000ECD4002070BD626C002084F84000202190
:1038400042F02002626484F8411084F84200E3E709
:1038500070B516460D4604460FE03246294620460E
:10386000FFF7E4FE08B1012070BD681C05D0FEF72B
:103870001FF8801BA84207D835B120688069C04373
:103880008007EAD4002070BD626C002084F84000FC
:10389000202142F02002626484F8411084F8420042
:1038A000E1E700002DE9F04700259A4601F50068A0
:1038B00091462DED028BB6EE008A84B00C4606468A
:1038C0004FF6FF77D0E000BFC0F34712B9F1010F08
:1038D000A0EB4211C9B20DD0B9B3012971D01E2994
:1038E0006FD01F2976D0801E514680B201F02DFA8C
:1038F00060B37CE05AB3172A3FD049B304EB800091
:103900001F2910ED210A52D08DED000A36F815005E
:10391000042104EB800010ED1F0A8DED010A36F83A
:10392000150004EB800090ED1F0A8DED020A36F8B9
:10393000150004EB800090ED210A68468DED030A26
:1039400002F06CF836F8150014E033E047E000E0D0
:1039500026E051B11F290BD004EB8000D0ED1F0AE7
:1039600090ED210A30EE800A17E094ED210A01E083
:1039700094ED3E0A04EB800072E041B11F2909D0AA
:1039800004EB800010ED210A50ED1F0A1FE098EDB6
:10399000C10AEFE798EDDE0AECE720EE080A5FE0E7
:1039A00004EB800010ED1F0AD0ED210A0FE0D0EDEE
:1039B0001F0A0CE004EB800090ED010A50E000E0EB
:1039C00008E004EB800010ED010AD0ED010A30EEB2
:1039D000200AE2E704EB800010ED010A40E036F82F
:1039E00015005146801C80B201F0AFF910B136F8D5
:1039F0001500E6E736F8150004EB800090ED010AAB
:103A0000D0ED020A30EE600A8DED000A36F815009E
:103A100004EB800050ED010A10ED021A70EEC10AAD
:103A2000CDED010A02F02DF8F0EE408A9DED010A7D
:103A300002F027F8F4EEC08A36F81500F1EE10FA1D
:103A400006DD04EB8000DDED010A10ED010A05E062
:103A500004EB8000DDED000A90ED010A30EE200A53
:103A60006D1CEDB280ED000A36F81500B8427FF407
:103A70002BAF04B0BDEC028BBDE8F0872DE9F74F0A
:103A800006460D462DED020B2DED0E8B88B0B0EEE7
:103A9000608AF0EE40AAB0F882060390304600F04B
:103AA00027FBF0EE40DA2946304600F0C7FAB0EEC8
:103AB000409ADFEDFE8A95F84C0F39EE280A78EE31
:103AC000280A20EE000A20EEA01A60EE000A21EE7D
:103AD000010A30EE601AC1EE2A0A70EE609A00EE1A
:103AE000100AB8EE401BB0EE000B01F0F9FF05F52F
:103AF0008059F7EEC0CB99F84D0200EE100AB8EEEF
:103B0000401BB0EE000B01F0EBFFB7EEC0CB95F819
:103B10004A0600EE100AB8EE401BB0EE000B01F0B2
:103B2000DFFFB0EE401BB7EE008AD5ED0B0A9FED2C
:103B3000E02AB0EE480AB7EEC1DB00EE820ADD4BA8
:103B4000C8EE000AB0EE480ACDED040A8DED058AF4
:103B5000B5F9440095ED0C2A00EE900AF8EEE00A63
:103B600002EE200AF0EE480A8DED060AB5F946107D
:103B7000D5ED0D2A081A02EE100AB8EEC22A42EE5E
:103B8000820A20EE800A8DED070AB6F8140600EED0
:103B9000100AB8EE400A10EE100A9FEDC7AA98422C
:103BA00001DD30EE4A0AB6F810068024B5F914108B
:103BB00000EE900AB6F88026B8EE601A00EE901A71
:103BC00004EA521000908DED011AF8EEE00AB6F802
:103BD000500601AA80EE80BA00EE100A5FF00000E5
:103BE000B8EE400A8DED020A02EB8001B14B91ED77
:103BF000000A10EE104A9C4203DD30EE4A0A81EDC5
:103C0000000A20EE0B0A401C022881ED000AEBDBC3
:103C1000D5ED082AB3EE090ADFEDA80A79EE40BA1D
:103C2000B9F95802B0EE480A01EE900A7DEEE0DAEA
:103C300002EEAB0A95ED072AF0EE480AF8EEE11A1B
:103C400042EE2D0A9DED011A60EE211A01EEE01AF6
:103C50008DED011A95F8251000988142B9F95A02A4
:103C600008D101EE900A9DED021AF8EEE11A20EE5D
:103C7000210A0BE001EE900A99ED972A9DED021AB8
:103C8000F8EEE11A71EE821A21EE800A002400EEAD
:103C9000601A8DED021AE017A31C04EB906104EB8F
:103CA000D06289114942521102EB41014FEAE37C93
:103CB0004AB204EBD47104F1030A03EB9C7349107C
:103CC0004FEAEA7C494204EB907704F1010B0AEBDE
:103CD0009C704FF0010C9B1004EB41014FEAEB7814
:103CE0005140A3EBA0030BEB98704FFA81FE5142B9
:103CF00003EBA0000CEB4101A0EBA70048430099A7
:103D000040B200297ED07146B6F882368B427AD115
:103D100036F81410674B00EE101AB8EE400A10EE99
:103D2000101A994201DD30EE4A0A291995F825C08A
:103D300005EB4403F0EE480A91F94C7C91F94D1FD4
:103D400001EE107A01EE901AB3F94C86F8EEC12A12
:103D5000B8EEE13A02EE108A20EE0B0A82EEAC1ABF
:103D6000F8EEC22AB0EE482A00998C45C3EE0C1A30
:103D700001EE2B2A22EE821A41EEAD0A01EE600A14
:103D800013D000EE900A4FF0FF3707EB4200B8EE79
:103D9000E02A00EE900AD9ED991A99ED981AF8EEFA
:103DA000E00A01EEA00A01EE420ADFED450A03999E
:103DB00001A8D5ED061A2DEE201A00EB8101B3F80B
:103DC0004A00B0EE48EA91ED002A00EE900A01EEBA
:103DD000C20AB8EE602AD5ED0A1AC1EE020AB0EEA8
:103DE0004E1A01EEAB1AC0EE2AEA21EE209A69EED5
:103DF000090A60EE890AB0EE6E0A09EE290A20EE81
:103E0000800A01E025E076E001F03EFE01F03CFE94
:103E100095ED0C1AF0EE4E0A41EE680A20EE010A0A
:103E200009EE200ACEEE800A30EEA90A01F02CFE3F
:103E300001F02AFEB5F9420030EE680A00EE900A61
:103E4000F8EEE00AF4EEC00AF1EE10FA03DD00200D
:103E50001CE0114658E7B5F9440000EE900AF8EE70
:103E6000E00AF4EEC00AF1EE10FA01DD01200DE0E7
:103E7000B5F9460000EE900AF8EEE00AF4EEC00A4A
:103E8000F1EE10FA01DD022000E0032004AB05EBA7
:103E9000400105EB800203EB8000B1F9401092ED88
:103EA0000B1A00EE901AD0ED001A0BE03393884302
:103EB0000000204200FEFF4600008047333353409D
:103EC000BD378635F8EEE00A30EE600A61EE890A09
:103ED00001EE00EA2EEE200ACEEE800A30EEA90AAC
:103EE00001F0D2FD01F0D0FD1A9830EE680A00EB27
:103EF000840080ED000A641CB4F5407FFFF6CBAE71
:103F000008B0BDEC0E8B05B0BDE8F08F4FF45072D9
:103F10000B464FF4105100F037B970B50C4605460A
:103F200001F016F82146284601F00CF921462846F2
:103F300001F072F82146284600F0EEFFB5F8700057
:103F40002146C0F3013084F82400284601F06CF8C3
:103F50002146284601F086F82146284600F01CFF3D
:103F60002146284601F046F92146284601F018FB73
:103F70002146284601F060FC2146284601F09AFBC4
:103F80002146284600F0F4FF21462846BDE870404F
:103F900001F066BA2DE9FC4700240D464FF40046B7
:103FA000814601226B463146484600F0EDF8002874
:103FB0002DD1BDF8000010F0080FF2D04FF450776B
:103FC0004FF48068052C1ED230223146484600F05E
:103FD000FFF8411C1BD02B463A464146484600F0AC
:103FE000D3F8002813D101226B463146484600F031
:103FF000CBF800280BD1BDF8000004F10104E4B2B5
:1040000010F0080FDED1042C03D96FF00700BDE8D3
:10401000FC87012248F20D0101AB484600F0B4F8DC
:10402000BDF804100028A5F88016BDF8001001F0B6
:104030000101A5F88216EAD10846E8E770B50C46FA
:1040400005462DED048B00F053F8B5F840062549E0
:1040500000EE900AB0EE408A9FED230AF8EE600A67
:1040600010EE900A884201DD70EEC00AB5F8000635
:1040700001EE100AB8EE411A11EE100A884201DD75
:1040800031EE401A94ED040A00EE801A80EE810AA7
:10409000B3EE021BB7EEC09AB0EE000B01F020FDAC
:1040A00029EE003B9FED111A94ED010AF7EE000A8C
:1040B00038EE411AA089D4ED021AB3EE092A40EE77
:1040C000010AB7EEC30B01EE100ABDEC048BB8EE8B
:1040D000411AC0EE202A32EEC10AC0EE210A30EEAB
:1040E000820A70BD00FEFF46000080473333534014
:1040F00070B50C46214A2DED048BB0F8541600EE35
:10410000101AB8EE408A18EE101A914203DD9FEDA6
:104110001C0A38EE408AB0F88006C0F3812594F876
:10412000240000EE100AB8EE401BB0EE000B01F0C8
:10413000D7FC01EE105AB0EE409BB0EE000BB8EE8B
:10414000C11B01F0CDFC89EE002BB4F90200B4F9DB
:10415000001000EE100A01EE101ADFED0A1AF8EE58
:10416000C00AB8EEC11AB7EEC20B50EE080ABDEC99
:10417000048B80EE810A30EE210A70BD00FEFF46FE
:104180000000804733335340FEB516464FF6FF72AA
:104190001D4602EA460240000024CDE900520A46CC
:1041A00001460A4802234FF4FA770297FDF74CFCC8
:1041B00038B1601EFEBD28192A5D4178427029552C
:1041C000A41CB4EB460FF6DB0020FEBD281900242A
:1041D0002DE9FF410E46054641061446100A8DF8AA
:1041E0000C0002238DF80D404FF4FA770E4803AA15
:1041F0008DE88C00090E3246FDF7D8FC20B14FF057
:10420000FF3004B0BDE8F081084B0122314628465A
:10421000FFF7BAFF05480088A04202D06FF0010006
:10422000EFE70020EDE7000028190024000000243B
:1042300038B548F20D04054601226B462146FFF7CA
:10424000A3FF002807D1BDF80000214640F48052AA
:104250002846FFF7BDFF38BDF8B5054648F20D0406
:1042600048076B4601222146860D2846FFF78CFF42
:10427000002808D1BDF80000214620F460722846CD
:104280003243FFF7A5FFF8BD0D4808B5016841F0BE
:1042900080010160016801F080010091016841F036
:1042A00008010160016801F008010091016841F016
:1042B00001010160006800F00100009008BD0000ED
:1042C000E04402581448002110B5124C0123134A4F
:1042D0000460C0E90121C0E9033141618161C1612C
:1042E0000162FDF755FB08B1FDF7C2F90A4800214C
:1042F000FDF7E4FA08B1FDF7BBF907480021FDF727
:1043000009FB08B1FDF7B4F9BDE810400820FDF73E
:104310002BBB0000001C005828190024B634900064
:104320001848002110B5164C0C224FF4E1330460FC
:10433000C0E90131C160C0E904128161C16101625B
:1043400041628162FFF797F808B1FDF791F90D48D6
:104350000021FFF76AF808B1FDF78AF90948002142
:10436000FFF73DF808B1FDF783F90648FFF717F8A6
:10437000002803D0BDE81040FDF77AB910BD000059
:104380000010014074190024FEE7704770470000D8
:104390002DE9F047454D044689464FF0000A28684C
:1043A000C04380070AD0414E283E306820F080602C
:1043B0003060FDF77DFA0746B04608E00120BDE811
:1043C000F08700BFFDF774FAC01B022867D8D8F841
:1043D00000000001F6D4206829684FF4FE0721F49C
:1043E0007C313E0241EA00302860207AA389B4F88B
:1043F00004C040022D4D2D495B1E227CACF1010C06
:104400001035091DA0F5007080B2521ECCF3080CC7
:1044100007EA034340EA0C00184306EA026210432D
:1044200028600868626920F0C000104308600A68CC
:10443000A06922F0200202430A60281D0A6822F0C7
:1044400010020A6002684FF6F873E4699A4342EA80
:10445000C40202600868B9F1000F40F010020A605F
:1044600011D00868B9F1010F11D040F400100860B4
:10447000D8F80000444640F08060C8F80000FDF71E
:1044800017FA05460DE0086840F40020EFE740F415
:104490008010ECE7FDF70CFA401B022801D903203D
:1044A0008DE720680001F5D5504688E7284402587A
:1044B0002DE9F047454D044689464FF0000A28682B
:1044C000C04380070AD0414E283E306820F080501B
:1044D0003060FDF7EDF90746B04608E00120BDE881
:1044E000F08700BFFDF7E4F9C01B022867D8D8F8B1
:1044F00000008000F6D4208829684FF4FE0721F0E0
:104500007C713E0241EA00502860207AA389B4F809
:1045100004C040022D4D2D495B1E227CACF1010CE4
:104520001835091DA0F5007080B2521ECCF3080C9E
:1045300007EA034340EA0C00184306EA026210430C
:1045400028600868626920F44060104308600A68C7
:10455000A06922F4007202430A60281D0A6822F44E
:1045600080720A6002684FF6F873E4699A4342EA7F
:10457000C40202600868B9F1000F40F480720A605A
:1045800011D00868B9F1010F11D040F080700860B7
:10459000D8F80000444640F08050C8F80000FDF70D
:1045A00087F905460DE0086840F48000EFE740F425
:1045B0000000ECE7FDF77CF9401B022801D903203D
:1045C0008DE720688000F5D5504688E728440258DA
:1045D0007047FDF7C9BB000030B5CBB04C212FA808
:1045E000FCF749F8202142A8FCF745F8BC216846B1
:1045F000FCF741F80220FDF74DFC204920480A68ED
:1046000022F001020A6009680168002441F4404177
:104610000160016801F440414A9101688904FCD5B8
:10462000022038900121C20364230C25CDE92F120A
:1046300039AA82E80B003C903D903E902FA8CDE92E
:104640003F544194FEF714FC402008230501CDE9B6
:10465000453042ABCDE9470549903F21032283E82D
:104660001600022142A8FEF7F3F911201E942594AA
:1046700000906846FDF78EFD4BB030BD2C0400580D
:10468000184802582E48F0B52E4A016841F47001CE
:104690000160106800F00F00072804D2106820F0B5
:1046A0000F00C01D106028490020274C10340B68F3
:1046B000264D43F001030B6020600B682B400B601C
:1046C000136803F00F03072B04D9136823F00F03BB
:1046D000DB1D13601C4C1E4A18341E4B261D371D53
:1046E0002060194C1C4D28343060261D3860371D61
:1046F00023603B1D35601C1D3A60251D2E1D186072
:10470000331D22602860326018600A680E4B134C1B
:1047100022F4802260330A60186020686FF30F0073
:10472000B0F1005F03D20E490120C1F8080143F245
:10473000D2000C49024B4A03803B08601A60F0BD6E
:1047400088ED00E000200052004402587FEDF6EAB8
:1047500080020101000202020000FF010010005C63
:1047600000800051004000523FB514A1D1E9002360
:1047700014A1CDE90023D1E90021CDE90221416E48
:10478000B9B1016802AC8A688968C2F34262490F14
:104790001DF80150615C2D01B5FBF1F1A0F86A1024
:1047A0001DF80210A25C0901B1FBF2F1A0F868103B
:1047B0003FBD0121A0F86A10F8E7000001010103E4
:1047C00007010000080402040801010190F8281004
:1047D000C90706D00168C36A4A6822F400321A4346
:1047E0004A6090F82810890706D50168036B4A686B
:1047F00022F480321A434A6090F82810490706D5FF
:104800000168436B4A6822F480221A434A6090F898
:104810002810090706D50168836B4A6822F4004214
:104820001A434A6090F82810C90606D50168C36B80
:104830008A6822F480521A438A6090F82810890608
:1048400006D50168036C8A6822F400521A438A6014
:1048500090F82810490611D50168436C4A6822F483
:1048600080121A434A60416CB1F5801F06D101687D
:10487000836C4A6822F4C0021A434A6090F82810F8
:10488000090606D50168C26C486820F40020104370
:1048900048607047F8B500260446C0F88860FDF708
:1048A00007F8054620686FF07E470068000708D5C6
:1048B00000222B464FF400112046009700F0F2F939
:1048C00060B92068006840070AD500222B464FF4E3
:1048D00080012046009700F0E5F908B10320F8BDFB
:1048E0002020C4F8800084F87C60C4F88400002094
:1048F000F8BD00002DE9F04304468068D94F87B029
:104900002268D4E90465E369616E304316681D438B
:104910002843D54B002501433E400E4316602068D6
:10492000E268416821F44051114341602268A16965
:104930009A4201D0206A01439668DFF830C3CC4F19
:10494000CC4806EA0C060E4396602168666ACA6A7D
:1049500022F00F023243CA622268BA420ED10068C6
:1049600000F03800182873D047DCB8B3082879D095
:1049700010286FD178E028287ED17BE0BE498A429A
:1049800009D1006800F00700062875D2DFE800F0C2
:10499000546A6C6E7072B9498A4209D1006800F09D
:1049A0000700062868D2DFE800F0475D5F616365B5
:1049B000B3498A4209D1006800F0070006285BD29B
:1049C000DFE800F03A5052545658AE498A420BD1B3
:1049D000006800F0070006284ED200E010E0DFE893
:1049E00000F02B4143454749A7498A420AD1006854
:1049F00000F03800182839D0B7DD2028BBD13CE0C2
:104A000001203AE0A1498A4209D1006800F007007C
:104A1000062831D2DFE800F01026282A2C2E9C49E7
:104A20008A420BD1006800F00700062824D2DFE894
:104A300000F003191B1D1F2100201EE09A421BD10C
:104A40008C48001D006800F00700062814D202E020
:104A50000CE007E010E0DFE800F0030507090B0DAC
:104A600002200AE0042008E0082006E0102004E00C
:104A7000202002E0402000E080208649DFF81882F4
:104A80009A42864A4FF400434FEA21174FF000063E
:104A90004ED110281AD006DC022809D004280BD0E9
:104AA00008287DD10DE020283ED0402878D13DE077
:104AB000FDF71AFA014610E06846FDF727FA01995A
:104AC0000BE003A8FDF7C4FA049906E0106880061D
:104AD00004D51068C0F3C100C140C1B3606A676803
:104AE00038F8102007EB4703B1FBF2F0834257D8A8
:104AF000B0EB073F54D8002308461946FBF74DFC9E
:104B00000902020241EA106170084FEA37001018EA
:104B10003A4671410023FBF740FC614AA0F5407121
:104B200091423DD821684CE03946D7E71946D5E790
:104B3000D4F81CC04FF6EF799C4552D108281AD002
:104B400006DC60B101280DD0042829D10EE039E03F
:104B5000102815D0202840D040287CD13FE0FEF717
:104B6000C7F801E0FEF7D6F8014610E06846FDF709
:104B7000CDF901990BE003A8FDF76AFA049906E064
:104B80001068800604D51068C0F3C100C140C9B1E7
:104B9000636A606838F81330B1FBF3F1490000E054
:104BA00059E001EB5001B1FBF0F080B2A0F110012F
:104BB000494550D84FF6F0732168C0F342021840BF
:104BC0001043C8600120A4F86A00A4F868002846D1
:104BD000E666266707B0BDE8F0833946D8E7194690
:104BE000D6E7082819D005DC58B101280CD00428D4
:104BF00031D10DE0102815D020282ED040282AD100
:104C00002DE0FEF775F801E0FEF784F8014610E0AC
:104C10006846FDF77BF901990BE003A8FDF718FA48
:104C2000049906E01068800605D51068C0F3C1003D
:104C3000C1400029C6D0636A606838F81330B1FB00
:104C4000F3F101EB5001B1FBF0F080B2A0F11001E3
:104C500049457FF667AF0125B4E73946EBE71946CA
:104C6000E9E70000F369FFCF000C0058FFF4FF11E3
:104C700000100140544402580044004000480040E5
:104C8000004C0040005000400014014000780040FB
:104C9000007C00400090D003E26800080044025805
:104CA000FFFC0F002DE9F0479A4617460E460446D2
:104CB000089D4FF000094FF0200839E0681C37D0FC
:104CC000FCF7F6FDA0EB0A00A84222D80DB320683D
:104CD000016849072CD5C069C043000528D4236862
:104CE0004FF40061196221680B6823F4D0730B60E4
:104CF00021688B6823F001038B60C4F88080C4F8BE
:104D00008480C4F8888000BF032084F87C90BDE8CC
:104D1000F08721680B6823F4D0730B6021688B68DF
:104D200023F001038B60C4F88080C4F88480EBE733
:104D30002068C06936EA000004D00020B842BDD027
:104D40000020E4E70120F9E7FEE7002210B501EBBF
:104D5000420303F58053B3F87242844203D0B3F8A0
:104D60006832834201D1012010BD521C052AEEDBBE
:104D7000002010BD401A00F1210103296FF0050247
:104D800005D3411C032902D31F38032801D2104642
:104D900070470020704700002DE9F04105460E469F
:104DA0001B212DED048BB0F84000B5F8742001EB09
:104DB0001031C2F30900B0F5007F60F30F0403DB8C
:104DC000A0F5806060F30F04900A1F2860F31F4471
:104DD00002DD403860F31F44B5F87230474A04EBF7
:104DE0002440C3F3090300EE103A60F31F44B8EE09
:104DF000408A18EE100A904203DD9FED410A38EE1A
:104E0000408A00EE101AB8EE401BB0EE000B00F026
:104E100067FEB7EEC82AB5F872003A49800A82EEFA
:104E2000001B00EE100AB8EE400A10EE100A88428D
:104E3000F7EEC18B03DDDFED340A30EE600A9FED43
:104E4000331AF7EE000A95F8760040EE010A00EEFC
:104E5000100A2F4FDFED2F9AB8EE408AB0EE680AA5
:104E600018EE100A20EE809AB84201DD38EE698A09
:104E700095F87000C0F30310083000EE100AB8EE89
:104E8000401BB0EE000B00F02BFEB7EEC81A81EE0F
:104E9000002BB7EEC20B86ED080AB5F87600000AC3
:104EA00000EE100AB8EE408A18EE100AB84201DD92
:104EB00038EE698AB5F87000C0F3032000EE100ADE
:104EC000B8EE401BB0EE000B00F00AFEB7EEC81AB9
:104ED00006F58050211481EE002BB7EEC20B86ED53
:104EE000070AC0ED948A80ED959AA0F85842A0F880
:104EF0005A12BDEC048BBDE8F08100000080FF4336
:104F0000000080440000F841000080420000003CA6
:104F10000000FE420000804390F87800094A00EE4D
:104F2000100AB8EE400A10EE100A904203DDDFEDE1
:104F3000060A30EE600ADFED050A20EE200A81ED58
:104F4000060A70470000FE42000080430000003D5A
:104F5000B0F86620100A7F2801DDA0F58070D2B27B
:104F60004FF440434001088003EB42124A807047EF
:104F700030B5838A8024B0F86A20224D04EA1310E9
:104F800002F03F0400EE104A80F08003B8EE400AC1
:104F900010EE100AA84203DDDFED1B0A30EE600AB6
:104FA000C2F38410194C00EE900A9FED191ADFED40
:104FB000191AF8EE600A20EE011A10EE900AA042CB
:104FC00001DD70EEE10AD00A00EE100AB6EE002A0A
:104FD000B8EE400A60EE820A10EE100AA04201DD2F
:104FE00030EE610AF4EE001A01F5805281F82530A6
:104FF00020EE210A82ED971AC2ED980A82ED990AF5
:1050000030BD00000000F841000080420000704107
:105010000000803D00000042B0F96000B0F5004F94
:1050200000DB00B288827047B0F878000A4A000AB4
:1050300000EE100AB8EE400A10EE100A904203DDAE
:10504000DFED060A30EE600ADFED050A20EE200AE9
:1050500081ED0A0A704700000000FE420000804314
:105060000000003970B530F87E3F6FF02702A1F8DC
:1050700040200024A1F8424010F80449C3F3013352
:105080004FF4C87603EB8303C4F30314A1F8444040
:1050900085885B00012214FB03F4C5F30325A1F806
:1050A0004440DFED260A15FB0343A1F84630A1F882
:1050B00048600378047900EE103A04F00F031E4DA7
:1050C0000833B8EE400A9A4081ED0B0A0488230A9F
:1050D00000EE103AB8EE400A81ED0C0A837800EE3B
:1050E000103AB8EE400A81ED0D0A4088000A00EE41
:1050F000100A0020B8EE400A81ED0E0A01EB800391
:1051000093ED0B0A10EE104AAC4203DD30EE600A5C
:1051100083ED0B0A00EE102A93ED0B1A401CB8EE3B
:10512000C00A0428C1EE001AC3ED0B1AE6DB9FED9E
:10513000040A81ED0F0A70BD0000FE4200008043AA
:1051400017B751B970B50C460546254A2DED028BAF
:10515000B0F86410880A00EE100AB8EE400A10EEAB
:10516000100A904203DDDFED1F0A30EE600A9FED6A
:105170001E1AC1F309001D4900EE900A20EE018AB3
:10518000B8EE600A10EE100A884203DDDFED180A5F
:1051900030EE600AF4EE000AB5F86260B2EE0C1B65
:1051A00060EE208AB0EE000B00F09AFC288CB2EE84
:1051B000002B00F4704001EE100A84ED018AC4ED6A
:1051C000028AB8EE411BA68181EE003B33EE020B52
:1051D000B7EEC00B84ED040ABDEC028B70BD00007D
:1051E0000000F84100008042000080390080FF4349
:1051F000000080442DE9F04F074689461E222DED20
:10520000028BADF6045DB0F840000DF68448B7F8A7
:10521000421000F00F0BCDF8F41C02EB1031CDF86A
:10522000E81C0DF6F842C0F30311C0F3032003C2DB
:105230005FF0000007EB40018200401CB1F8441011
:1052400001F00F030E0BC1F30314C1F3032508EBA8
:10525000820101F1040148F82230062881E870003B
:10526000E8DB002058F82010072902DD103948F843
:105270002010401C1828F5DB5FF000010DF60440FB
:1052800007EB41038A00491CB3F85030082903F0AA
:105290000F044FEA133CC3F30315C3F3032600EBDB
:1052A000820303F1040340F8224083E86010E7DB47
:1052B0005FF0000150F82120072A02DD103A40F883
:1052C0002120491C2029F5DB0121002601FA0BFBD6
:1052D00009F5805ADFED5F8AB6EE008A0DF1040809
:1052E0005FF000055C4A05EB461007EB400308EB56
:1052F0008004B3F88030C3F3051000EE100AB8EE56
:10530000400A10EE100A84ED000A904205DDDFED40
:10531000530A30EE600A84ED000A00EE10BA94EDF4
:10532000002ADDF8E80C0DF60441B8EEC00A00EEE4
:10533000900A0DF6844022EE000AB8EE601B84ED60
:10534000000A50F82600DDF8F82C51F8251090409E
:10535000DDF8F42C0244DDF8FC0C8140501800EE1E
:10536000900AF8EEE00A30EE800A84ED000AB0EE12
:10537000000B00F0B5FB94ED001A6D1C202DB7EE6C
:10538000C11A81EE002BB7EEC20B84ED000ADAEDF4
:10539000940ADAED951A99ED061A70EEA10A60EEFC
:1053A000810A00EEC80A84ED000AC8EE800AC4ED46
:1053B000000A97DB761C182E92DB9DED010A5FF048
:1053C000010046464FF4407706EB8001D1ED000A1C
:1053D000F4EEC00AF1EE10FA01DDB0EE600A401CF6
:1053E000B842F1DB0024F0EE000A4FF08E4103E0FA
:1053F00020EE200A641CE4B210EE100A8842F7DBAB
:105400005FF0000500EE104AB8EE401BB0EE000B56
:1054100000F066FB06EB850209EB450192ED001AF0
:105420006D1CBD42B7EEC11A20EE010BB7EEC00BEA
:1054300030EE080ABCEEC00A10EE100AA1F84A00CD
:10544000E0DB89F84A460DF6045DBDEC028BBDE851
:10545000F08F0000BD3786350000F8410000804223
:105460002DE9F0410E46844600214FF6FF730C46AD
:105470000D46084606EB410202F580524F1CB9B2B8
:10548000A2F868320529A2F87232F3D300214FF452
:10549000407300BF0CEB4102B2F88020BAB1D207D2
:1054A00007D006EB450202F580526D1CADB2A2F8A2
:1054B0007212491C89B2994203D2052C01D2052DE2
:1054C000E8D3042C0CD96FF00200BDE8F08106EBA4
:1054D000440202F58052641CA4B2A2F86812E8E704
:1054E000042D02D96FF00300EFE76119042902D9F6
:1054F0006FF00400E9E7002317E000BF06EB43016B
:105500005F1C01F580580CE006EB470000F5805069
:10551000B0F86812B8F86802FFF72CFC0028D4D164
:105520007F1CA742F0DB5B1C9BB2A342E6D30023A7
:1055300017E000BF06EB43015F1C01F580580CE04B
:1055400006EB470000F58050B0F87212B8F872020E
:10555000FFF710FC0028B8D17F1CAF42F0DB5B1CCA
:105560009BB2AB42E6D3002317E000BF06EB43013A
:10557000002701F580580CE006EB470000F580504D
:10558000B0F87212B8F86802FFF7F4FB00289CD15B
:105590007F1CAF42F0DB5B1C9BB2A342E6D394E7D7
:1055A0002DE9F34F018CB8B0B0F9223001F00F0AA9
:1055B000B3F5004FC1F30319C1F3032E00DB1BB297
:1055C000002120AA00EB41058C00491CAD8C062966
:1055D00005F00F064FEA153CC5F30317C5F3032882
:1055E00002EB840505F1040542F8246085E880118A
:1055F000E8DB0021934652F82140072C03DD103CE4
:105600005A464BF82140491C1829F3DB0022694611
:1056100000EB42049500521C248E082A04F00F0669
:105620004FEA143CC4F30317C4F3032801EB8504C9
:1056300004F1040441F8256084E88011E8DB0022CD
:1056400051F82240072C02DD103C41F82240521C48
:10565000202AF5DB5FF0000400225BF8245005FAF5
:105660000EF500BF02EB4416DDF8E4C000EB460780
:105670000CEB4606B7F88070BF0AA6F84C761F2FD1
:1056800002DD403FA6F84C76BFB231F8228007FA1F
:105690000AF7521C202A08FA09F805EB080C1F44E7
:1056A0006744A6F84C76DDDB641C182CD4DB3AB0DA
:1056B000BDE8F08F2DE9F0478A462DED028BADF65F
:1056C000084DB0F86830190B072900DD10398DF846
:1056D000001CC3F30322072A00DD103A8DF8022CC8
:1056E000C3F30311072900DD10398DF8011C03F005
:1056F0000F02072A00DD103A8DF8032CB0F8700075
:1057000000250DF54069E846C0F303265FF000046C
:1057100004EB451000EE106AC11700EBD07200EBED
:10572000916300EBD1679B115B4222F001017A117A
:1057300002EB4302411A01EB4201CAB2B8EE401B30
:1057400008EB800719F9022000EE102AB8EEC00A13
:1057500087ED000AB0EE000B00F0C2F997ED001AD9
:10576000641C202CB7EEC11A81EE002BB7EEC20BE1
:1057700087ED000ACCDB6D1C182DC7DB9DED000A00
:10578000012446464FF44077B0EEC08A06EB84050C
:1057900095ED000A00F075F9B4EEC80AF1EE10FAC2
:1057A00003DD95ED000AB0EEC08A641CBC42EDDB5F
:1057B00000254FF08541B0EE000A03E028EE008A94
:1057C0006D1CEDB218EE100A8842F7DB5FF00004A2
:1057D000B6EE008A00EE105AB8EE401BB0EE000B99
:1057E00000F07EF906EB84000AEB040190ED001A4C
:1057F000B7EEC11A20EE010BB7EEC00BB5EEC00A32
:10580000F1EE10FA02D230EE480A01E030EE080A5A
:10581000641CBC42BDEEC00A10EE100A81F84D0FA8
:10582000D8DB41F24D2000F80A500DF6084DBDECD2
:10583000028BBDE8F08700002DE9F34F07462DED00
:10584000028BADF6044DB0F86C0040F307217F29C0
:1058500000DD49B28DF8001C40B27F2800DD40B267
:105860008DF8020CB7F86E0040F307217F2900DDA8
:1058700049B28DF8011C40B27F2800DD40B28DF89E
:10588000030C97F87010E846DFF88CB1C1F30310F1
:1058900000F1080A012001F00F01002600FA01F9C9
:1058A0005FF0000505EB4610C11700EBD07200EB6E
:1058B000916300EBD1649B115B4222F00101621104
:1058C00002EB4302411A01EB420107EB4002C9B26D
:1058D00092F88040C4F3420C00EE10CA08EB80043A
:1058E000B8EE400A10EE100A84ED000A584505DDB6
:1058F000F2EE000A30EE600A84ED000A00EE109A23
:1059000094ED002A0DF54060B8EEC00A00EE90AAB2
:1059100022EE000AB8EE601B84ED000A405600EE4D
:10592000900AF8EEE00A30EE800A84ED000AB0EE4C
:10593000000B00F0D5F894ED001A6D1C202DB7EE89
:10594000C12A82EE001BB7EEC10B84ED000AA9DB71
:10595000761C182EA4DB9DED000A5FF0010446467C
:105960004FF44077B0EEC08A06EB840595ED000A4F
:1059700000F087F8B4EEC80AF1EE10FA03DD95EDF9
:10598000000AB0EEC08A641CBC42EDDB00254FF07B
:105990008541B0EE000A03E028EE008A6D1CEDB2EE
:1059A00018EE100A8842F7DB5FF00004B6EE008ABA
:1059B00000EE105AB8EE401BB0EE000B00F090F86D
:1059C00006EB840090ED001ADDF8100CB7EEC11A5A
:1059D00000EB040120EE010BB7EEC00BB5EEC00AE0
:1059E000F1EE10FA02D230EE480A01E030EE080A79
:1059F000641CBC42BDEEC00A10EE100A81F84C0CCB
:105A0000D6DBDDF8100C80F84C5F0DF6044DBDECD4
:105A1000028BBDE8FC8F00000000404070B54D1EB9
:105A2000002216E0531C00EB82040FE000EB83061B
:105A300094ED000AD6ED000AF4EEC00AF1EE10FA79
:105A400003D2C4ED000A86ED000A5B1C8B42EDDB3D
:105A5000521CAA42E6DB01EBD172C9074FEA62028F
:105A600000EB820002D090ED000A70BDD0ED000A7C
:105A700010ED011AB6EE000A70EE810A20EE800ADF
:105A800070BDB0EEC00A704700F0A6BC03B4019828
:105A90004100009850EAC12018BF04204A0D18BFE9
:105AA00040F0010040F2FF72B2EB515F08BF40F0DE
:105AB0000200012808BF052002B07047090700282E
:105AC0004FEA116104DB00F1E02080F80014704718
:105AD00000F00F0000F1E02080F8141D7047000076
